{"abi":[{"type":"constructor","inputs":[{"name":"_programContractAddress","type":"address","internalType":"address"},{"name":"_avsSubmitContractAddress","type":"address","internalType":"address"}],"stateMutability":"nonpayable"},{"type":"function","name":"allowClaim","inputs":[],"outputs":[{"name":"","type":"bool","internalType":"bool"}],"stateMutability":"view"},{"type":"function","name":"avsSubmitContractAddress","inputs":[],"outputs":[{"name":"","type":"address","internalType":"address"}],"stateMutability":"view"},{"type":"function","name":"claim","inputs":[{"name":"_appId","type":"uint256","internalType":"uint256"}],"outputs":[],"stateMutability":"nonpayable"},{"type":"function","name":"owner","inputs":[],"outputs":[{"name":"","type":"address","internalType":"address"}],"stateMutability":"view"},{"type":"function","name":"programContractAddress","inputs":[],"outputs":[{"name":"","type":"address","internalType":"address"}],"stateMutability":"view"},{"type":"function","name":"renounceOwnership","inputs":[],"outputs":[],"stateMutability":"nonpayable"},{"type":"function","name":"rewardApp","inputs":[{"name":"","type":"uint256","internalType":"uint256"}],"outputs":[{"name":"","type":"uint256","internalType":"uint256"}],"stateMutability":"view"},{"type":"function","name":"setAllowClaim","inputs":[{"name":"_allowClaim","type":"bool","internalType":"bool"}],"outputs":[],"stateMutability":"nonpayable"},{"type":"function","name":"transferOwnership","inputs":[{"name":"newOwner","type":"address","internalType":"address"}],"outputs":[],"stateMutability":"nonpayable"},{"type":"function","name":"updateAvsSubmitContractAddress","inputs":[{"name":"_newAvsSubmitContractAddress","type":"address","internalType":"address"}],"outputs":[],"stateMutability":"nonpayable"},{"type":"function","name":"updateProgramContractAddress","inputs":[{"name":"_newProgramContractAddress","type":"address","internalType":"address"}],"outputs":[],"stateMutability":"nonpayable"},{"type":"function","name":"updateReward","inputs":[{"name":"_appIds","type":"uint256[]","internalType":"uint256[]"},{"name":"_additionalRewards","type":"uint256[]","internalType":"uint256[]"}],"outputs":[],"stateMutability":"nonpayable"},{"type":"event","name":"AllowClaimUpdated","inputs":[{"name":"allowClaim","type":"bool","indexed":false,"internalType":"bool"}],"anonymous":false},{"type":"event","name":"Claimed","inputs":[{"name":"appId","type":"uint256","indexed":false,"internalType":"uint256"},{"name":"claimant","type":"address","indexed":false,"internalType":"address"},{"name":"amount","type":"uint256","indexed":false,"internalType":"uint256"}],"anonymous":false},{"type":"event","name":"OwnershipTransferred","inputs":[{"name":"previousOwner","type":"address","indexed":true,"internalType":"address"},{"name":"newOwner","type":"address","indexed":true,"internalType":"address"}],"anonymous":false},{"type":"event","name":"RewardUpdated","inputs":[{"name":"appId","type":"uint256","indexed":false,"internalType":"uint256"},{"name":"additionalReward","type":"uint256","indexed":false,"internalType":"uint256"}],"anonymous":false},{"type":"error","name":"OwnableInvalidOwner","inputs":[{"name":"owner","type":"address","internalType":"address"}]},{"type":"error","name":"OwnableUnauthorizedAccount","inputs":[{"name":"account","type":"address","internalType":"address"}]},{"type":"error","name":"ReentrancyGuardReentrantCall","inputs":[]}],"bytecode":{"object":"0x608060405234801562000010575f80fd5b5060405162001b9538038062001b9583398181016040528101906200003691906200036d565b335f73ffffffffffffffffffffffffffffffffffffffff168173ffffffffffffffffffffffffffffffffffffffff1603620000aa575f6040517f1e4fbdf7000000000000000000000000000000000000000000000000000000008152600401620000a19190620003c3565b60405180910390fd5b620000bb816200024760201b60201c565b50600180819055505f73ffffffffffffffffffffffffffffffffffffffff168273ffffffffffffffffffffffffffffffffffffffff160362000134576040517f08c379a00000000000000000000000000000000000000000000000000000000081526004016200012b9062000462565b60405180910390fd5b5f73ffffffffffffffffffffffffffffffffffffffff168173ffffffffffffffffffffffffffffffffffffffff1603620001a5576040517f08c379a00000000000000000000000000000000000000000000000000000000081526004016200019c90620004f6565b60405180910390fd5b8160025f6101000a81548173ffffffffffffffffffffffffffffffffffffffff021916908373ffffffffffffffffffffffffffffffffffffffff1602179055508060035f6101000a81548173ffffffffffffffffffffffffffffffffffffffff021916908373ffffffffffffffffffffffffffffffffffffffff1602179055505f600360146101000a81548160ff021916908315150217905550505062000516565b5f805f9054906101000a900473ffffffffffffffffffffffffffffffffffffffff169050815f806101000a81548173ffffffffffffffffffffffffffffffffffffffff021916908373ffffffffffffffffffffffffffffffffffffffff1602179055508173ffffffffffffffffffffffffffffffffffffffff168173ffffffffffffffffffffffffffffffffffffffff167f8be0079c531659141344cd1fd0a4f28419497f9722a3daafe3b4186f6b6457e060405160405180910390a35050565b5f80fd5b5f73ffffffffffffffffffffffffffffffffffffffff82169050919050565b5f62000337826200030c565b9050919050565b62000349816200032b565b811462000354575f80fd5b50565b5f8151905062000367816200033e565b92915050565b5f806040838503121562000386576200038562000308565b5b5f620003958582860162000357565b9250506020620003a88582860162000357565b9150509250929050565b620003bd816200032b565b82525050565b5f602082019050620003d85f830184620003b2565b92915050565b5f82825260208201905092915050565b7f50726f6772616d20636f6e747261637420616464726573732063616e6e6f74205f8201527f6265207a65726f2e000000000000000000000000000000000000000000000000602082015250565b5f6200044a602883620003de565b91506200045782620003ee565b604082019050919050565b5f6020820190508181035f8301526200047b816200043c565b9050919050565b7f415653205375626d697420636f6e747261637420616464726573732063616e6e5f8201527f6f74206265207a65726f2e000000000000000000000000000000000000000000602082015250565b5f620004de602b83620003de565b9150620004eb8262000482565b604082019050919050565b5f6020820190508181035f8301526200050f81620004d0565b9050919050565b61167180620005245f395ff3fe608060405234801561000f575f80fd5b50600436106100b2575f3560e01c80638da5cb5b1161006f5780638da5cb5b14610164578063b25054f314610182578063d2d8e9031461019e578063ed2aaad0146101bc578063f031d86d146101d8578063f2fde38b146101f4576100b2565b80630356783b146100b657806306dafba4146100d4578063379607f5146101045780633824253e14610120578063715018a61461013e57806381d5ee5a14610148575b5f80fd5b6100be610210565b6040516100cb9190610c0c565b60405180910390f35b6100ee60048036038101906100e99190610c69565b610223565b6040516100fb9190610ca3565b60405180910390f35b61011e60048036038101906101199190610c69565b610238565b005b6101286105c6565b6040516101359190610cfb565b60405180910390f35b6101466105eb565b005b610162600480360381019061015d9190610d3e565b6105fe565b005b61016c6106b7565b6040516101799190610cfb565b60405180910390f35b61019c60048036038101906101979190610d3e565b6106de565b005b6101a6610797565b6040516101b39190610cfb565b60405180910390f35b6101d660048036038101906101d19190610d93565b6107bc565b005b6101f260048036038101906101ed9190610f0e565b610818565b005b61020e60048036038101906102099190610d3e565b6109d0565b005b600360149054906101000a900460ff1681565b6004602052805f5260405f205f915090505481565b610240610a54565b600360149054906101000a900460ff1661028f576040517f08c379a000000000000000000000000000000000000000000000000000000000815260040161028690611004565b60405180910390fd5b5f60045f8381526020019081526020015f2054116102e2576040517f08c379a00000000000000000000000000000000000000000000000000000000081526004016102d990611092565b60405180910390fd5b5f60025f9054906101000a900473ffffffffffffffffffffffffffffffffffffffff1690508073ffffffffffffffffffffffffffffffffffffffff1663a2751e0983336040518363ffffffff1660e01b81526004016103429291906110b0565b602060405180830381865afa15801561035d573d5f803e3d5ffd5b505050506040513d601f19601f8201168201806040525081019061038191906110eb565b6103c0576040517f08c379a00000000000000000000000000000000000000000000000000000000081526004016103b790611186565b60405180910390fd5b5f8173ffffffffffffffffffffffffffffffffffffffff1663f06ea95f846040518263ffffffff1660e01b81526004016103fa9190610ca3565b602060405180830381865afa158015610415573d5f803e3d5ffd5b505050506040513d601f19601f8201168201806040525081019061043991906111b8565b90505f73ffffffffffffffffffffffffffffffffffffffff168173ffffffffffffffffffffffffffffffffffffffff16036104a9576040517f08c379a00000000000000000000000000000000000000000000000000000000081526004016104a090611253565b60405180910390fd5b5f60045f8581526020019081526020015f205490505f60045f8681526020019081526020015f20819055505f8273ffffffffffffffffffffffffffffffffffffffff16826040516104f99061129e565b5f6040518083038185875af1925050503d805f8114610533576040519150601f19603f3d011682016040523d82523d5f602084013e610538565b606091505b505090508061057c576040517f08c379a0000000000000000000000000000000000000000000000000000000008152600401610573906112fc565b60405180910390fd5b7f4ec90e965519d92681267467f775ada5bd214aa92c0dc93d90a5e880ce9ed0268533846040516105af9392919061131a565b60405180910390a1505050506105c3610a9a565b50565b60035f9054906101000a900473ffffffffffffffffffffffffffffffffffffffff1681565b6105f3610aa3565b6105fc5f610b2a565b565b610606610aa3565b5f73ffffffffffffffffffffffffffffffffffffffff168173ffffffffffffffffffffffffffffffffffffffff1603610674576040517f08c379a000000000000000000000000000000000000000000000000000000000815260040161066b906113bf565b60405180910390fd5b8060035f6101000a81548173ffffffffffffffffffffffffffffffffffffffff021916908373ffffffffffffffffffffffffffffffffffffffff16021790555050565b5f805f9054906101000a900473ffffffffffffffffffffffffffffffffffffffff16905090565b6106e6610aa3565b5f73ffffffffffffffffffffffffffffffffffffffff168173ffffffffffffffffffffffffffffffffffffffff1603610754576040517f08c379a000000000000000000000000000000000000000000000000000000000815260040161074b9061144d565b60405180910390fd5b8060025f6101000a81548173ffffffffffffffffffffffffffffffffffffffff021916908373ffffffffffffffffffffffffffffffffffffffff16021790555050565b60025f9054906101000a900473ffffffffffffffffffffffffffffffffffffffff1681565b6107c4610aa3565b80600360146101000a81548160ff0219169083151502179055507f1bbb616952f750e43b87eda72ecf11b522593fe90106c8956c741af0aa6512448160405161080d9190610c0c565b60405180910390a150565b60035f9054906101000a900473ffffffffffffffffffffffffffffffffffffffff1673ffffffffffffffffffffffffffffffffffffffff163373ffffffffffffffffffffffffffffffffffffffff16146108a7576040517f08c379a000000000000000000000000000000000000000000000000000000000815260040161089e906114db565b60405180910390fd5b80518251146108eb576040517f08c379a00000000000000000000000000000000000000000000000000000000081526004016108e290611569565b60405180910390fd5b5f5b82518110156109cb5781818151811061090957610908611587565b5b602002602001015160045f85848151811061092757610926611587565b5b602002602001015181526020019081526020015f205f82825461094a91906115e1565b925050819055507f3efe2b1ade87153c913a322f09a35c930d7fd699770b8d7cdd294e1debf6e9e483828151811061098557610984611587565b5b60200260200101518383815181106109a05761099f611587565b5b60200260200101516040516109b6929190611614565b60405180910390a180806001019150506108ed565b505050565b6109d8610aa3565b5f73ffffffffffffffffffffffffffffffffffffffff168173ffffffffffffffffffffffffffffffffffffffff1603610a48575f6040517f1e4fbdf7000000000000000000000000000000000000000000000000000000008152600401610a3f9190610cfb565b60405180910390fd5b610a5181610b2a565b50565b600260015403610a90576040517f3ee5aeb500000000000000000000000000000000000000000000000000000000815260040160405180910390fd5b6002600181905550565b60018081905550565b610aab610beb565b73ffffffffffffffffffffffffffffffffffffffff16610ac96106b7565b73ffffffffffffffffffffffffffffffffffffffff1614610b2857610aec610beb565b6040517f118cdaa7000000000000000000000000000000000000000000000000000000008152600401610b1f9190610cfb565b60405180910390fd5b565b5f805f9054906101000a900473ffffffffffffffffffffffffffffffffffffffff169050815f806101000a81548173ffffffffffffffffffffffffffffffffffffffff021916908373ffffffffffffffffffffffffffffffffffffffff1602179055508173ffffffffffffffffffffffffffffffffffffffff168173ffffffffffffffffffffffffffffffffffffffff167f8be0079c531659141344cd1fd0a4f28419497f9722a3daafe3b4186f6b6457e060405160405180910390a35050565b5f33905090565b5f8115159050919050565b610c0681610bf2565b82525050565b5f602082019050610c1f5f830184610bfd565b92915050565b5f604051905090565b5f80fd5b5f80fd5b5f819050919050565b610c4881610c36565b8114610c52575f80fd5b50565b5f81359050610c6381610c3f565b92915050565b5f60208284031215610c7e57610c7d610c2e565b5b5f610c8b84828501610c55565b91505092915050565b610c9d81610c36565b82525050565b5f602082019050610cb65f830184610c94565b92915050565b5f73ffffffffffffffffffffffffffffffffffffffff82169050919050565b5f610ce582610cbc565b9050919050565b610cf581610cdb565b82525050565b5f602082019050610d0e5f830184610cec565b92915050565b610d1d81610cdb565b8114610d27575f80fd5b50565b5f81359050610d3881610d14565b92915050565b5f60208284031215610d5357610d52610c2e565b5b5f610d6084828501610d2a565b91505092915050565b610d7281610bf2565b8114610d7c575f80fd5b50565b5f81359050610d8d81610d69565b92915050565b5f60208284031215610da857610da7610c2e565b5b5f610db584828501610d7f565b91505092915050565b5f80fd5b5f601f19601f8301169050919050565b7f4e487b71000000000000000000000000000000000000000000000000000000005f52604160045260245ffd5b610e0882610dc2565b810181811067ffffffffffffffff82111715610e2757610e26610dd2565b5b80604052505050565b5f610e39610c25565b9050610e458282610dff565b919050565b5f67ffffffffffffffff821115610e6457610e63610dd2565b5b602082029050602081019050919050565b5f80fd5b5f610e8b610e8684610e4a565b610e30565b90508083825260208201905060208402830185811115610eae57610ead610e75565b5b835b81811015610ed75780610ec38882610c55565b845260208401935050602081019050610eb0565b5050509392505050565b5f82601f830112610ef557610ef4610dbe565b5b8135610f05848260208601610e79565b91505092915050565b5f8060408385031215610f2457610f23610c2e565b5b5f83013567ffffffffffffffff811115610f4157610f40610c32565b5b610f4d85828601610ee1565b925050602083013567ffffffffffffffff811115610f6e57610f6d610c32565b5b610f7a85828601610ee1565b9150509250929050565b5f82825260208201905092915050565b7f436c61696d696e67206973206e6f7420616c6c6f77656420617420746865206d5f8201527f6f6d656e742e0000000000000000000000000000000000000000000000000000602082015250565b5f610fee602683610f84565b9150610ff982610f94565b604082019050919050565b5f6020820190508181035f83015261101b81610fe2565b9050919050565b7f4e6f207265776172647320617661696c61626c6520666f7220746869732061705f8201527f702e000000000000000000000000000000000000000000000000000000000000602082015250565b5f61107c602283610f84565b915061108782611022565b604082019050919050565b5f6020820190508181035f8301526110a981611070565b9050919050565b5f6040820190506110c35f830185610c94565b6110d06020830184610cec565b9392505050565b5f815190506110e581610d69565b92915050565b5f60208284031215611100576110ff610c2e565b5b5f61110d848285016110d7565b91505092915050565b7f436f6e7472616374206973206e6f742077686974656c697374656420666f72205f8201527f74686973206170702e0000000000000000000000000000000000000000000000602082015250565b5f611170602983610f84565b915061117b82611116565b604082019050919050565b5f6020820190508181035f83015261119d81611164565b9050919050565b5f815190506111b281610d14565b92915050565b5f602082840312156111cd576111cc610c2e565b5b5f6111da848285016111a4565b91505092915050565b7f42656e65666963696172792061646472657373206e6f742073657420666f72205f8201527f74686973206170702e0000000000000000000000000000000000000000000000602082015250565b5f61123d602983610f84565b9150611248826111e3565b604082019050919050565b5f6020820190508181035f83015261126a81611231565b9050919050565b5f81905092915050565b50565b5f6112895f83611271565b91506112948261127b565b5f82019050919050565b5f6112a88261127e565b9150819050919050565b7f5472616e73666572206661696c65642e000000000000000000000000000000005f82015250565b5f6112e6601083610f84565b91506112f1826112b2565b602082019050919050565b5f6020820190508181035f830152611313816112da565b9050919050565b5f60608201905061132d5f830186610c94565b61133a6020830185610cec565b6113476040830184610c94565b949350505050565b7f415653205375626d697420636f6e747261637420616464726573732063616e6e5f8201527f6f74206265207a65726f2e000000000000000000000000000000000000000000602082015250565b5f6113a9602b83610f84565b91506113b48261134f565b604082019050919050565b5f6020820190508181035f8301526113d68161139d565b9050919050565b7f50726f6772616d20636f6e747261637420616464726573732063616e6e6f74205f8201527f6265207a65726f2e000000000000000000000000000000000000000000000000602082015250565b5f611437602883610f84565b9150611442826113dd565b604082019050919050565b5f6020820190508181035f8301526114648161142b565b9050919050565b7f4f6e6c792074686520415653205375626d697420436f6e74726163742063616e5f8201527f2063616c6c20746869732066756e6374696f6e2e000000000000000000000000602082015250565b5f6114c5603483610f84565b91506114d08261146b565b604082019050919050565b5f6020820190508181035f8301526114f2816114b9565b9050919050565b7f417272617973206d7573742068617665207468652073616d65206c656e6774685f8201527f2e00000000000000000000000000000000000000000000000000000000000000602082015250565b5f611553602183610f84565b915061155e826114f9565b604082019050919050565b5f6020820190508181035f83015261158081611547565b9050919050565b7f4e487b71000000000000000000000000000000000000000000000000000000005f52603260045260245ffd5b7f4e487b71000000000000000000000000000000000000000000000000000000005f52601160045260245ffd5b5f6115eb82610c36565b91506115f683610c36565b925082820190508082111561160e5761160d6115b4565b5b92915050565b5f6040820190506116275f830185610c94565b6116346020830184610c94565b939250505056fea2646970667358221220ef1e2a6c9377176c5781738aa6a051d207d8185d6c626b6aca1c26d6b44e87c164736f6c63430008160033","linkReferences":{}},"methodIdentifiers":{"allowClaim()":"0356783b","avsSubmitContractAddress()":"3824253e","claim(uint256)":"379607f5","owner()":"8da5cb5b","programContractAddress()":"d2d8e903","renounceOwnership()":"715018a6","rewardApp(uint256)":"06dafba4","setAllowClaim(bool)":"ed2aaad0","transferOwnership(address)":"f2fde38b","updateAvsSubmitContractAddress(address)":"81d5ee5a","updateProgramContractAddress(address)":"b25054f3","updateReward(uint256[],uint256[])":"f031d86d"},"id":6}