{"abi":[{"type":"constructor","inputs":[],"stateMutability":"nonpayable"},{"type":"function","name":"createContracts","inputs":[{"name":"_daoName","type":"string","internalType":"string"},{"name":"_daoDescription","type":"string","internalType":"string"},{"name":"_daoXAccount","type":"string","internalType":"string"},{"name":"_daoDiscordAccount","type":"string","internalType":"string"},{"name":"_daoQuorum","type":"uint256","internalType":"uint256"},{"name":"_daoVotingThreshold","type":"uint256","internalType":"uint256"},{"name":"_daoOnlyMembersCanPropose","type":"bool","internalType":"bool"},{"name":"_initialWhitelistedTokens","type":"address[]","internalType":"address[]"},{"name":"_initialWhitelistedFunders","type":"address[]","internalType":"address[]"}],"outputs":[],"stateMutability":"nonpayable"},{"type":"function","name":"owner","inputs":[],"outputs":[{"name":"","type":"address","internalType":"address"}],"stateMutability":"view"},{"type":"function","name":"renounceOwnership","inputs":[],"outputs":[],"stateMutability":"nonpayable"},{"type":"function","name":"transferOwnership","inputs":[{"name":"newOwner","type":"address","internalType":"address"}],"outputs":[],"stateMutability":"nonpayable"},{"type":"event","name":"DAOCreated","inputs":[{"name":"daoContract","type":"address","indexed":false,"internalType":"address"},{"name":"treasuryContract","type":"address","indexed":false,"internalType":"address"}],"anonymous":false},{"type":"event","name":"OwnershipTransferred","inputs":[{"name":"previousOwner","type":"address","indexed":true,"internalType":"address"},{"name":"newOwner","type":"address","indexed":true,"internalType":"address"}],"anonymous":false},{"type":"error","name":"OwnableInvalidOwner","inputs":[{"name":"owner","type":"address","internalType":"address"}]},{"type":"error","name":"OwnableUnauthorizedAccount","inputs":[{"name":"account","type":"address","internalType":"address"}]}],"bytecode":{"object":"0x608060405234801561000f575f80fd5b50335f73ffffffffffffffffffffffffffffffffffffffff168173ffffffffffffffffffffffffffffffffffffffff1603610081575f6040517f1e4fbdf70000000000000000000000000000000000000000000000000000000081526004016100789190610196565b60405180910390fd5b6100908161009660201b60201c565b506101af565b5f805f9054906101000a900473ffffffffffffffffffffffffffffffffffffffff169050815f806101000a81548173ffffffffffffffffffffffffffffffffffffffff021916908373ffffffffffffffffffffffffffffffffffffffff1602179055508173ffffffffffffffffffffffffffffffffffffffff168173ffffffffffffffffffffffffffffffffffffffff167f8be0079c531659141344cd1fd0a4f28419497f9722a3daafe3b4186f6b6457e060405160405180910390a35050565b5f73ffffffffffffffffffffffffffffffffffffffff82169050919050565b5f61018082610157565b9050919050565b61019081610176565b82525050565b5f6020820190506101a95f830184610187565b92915050565b616ac180620001bd5f395ff3fe608060405234801562000010575f80fd5b506004361062000050575f3560e01c8063715018a614620000545780638da5cb5b1462000060578063cdc5c5b21462000082578063f2fde38b14620000a2575b5f80fd5b6200005e620000c2565b005b6200006a620000d9565b6040516200007991906200041a565b60405180910390f35b620000a060048036038101906200009a919062000716565b62000100565b005b620000c06004803603810190620000ba9190620008a9565b620001d8565b005b620000cc62000263565b620000d75f620002f3565b565b5f805f9054906101000a900473ffffffffffffffffffffffffffffffffffffffff16905090565b6200010a62000263565b5f338a8a8a8a8a8a8a6040516200012190620003bb565b620001349897969594939291906200097f565b604051809103905ff0801580156200014e573d5f803e3d5ffd5b5090505f338285856040516200016490620003c9565b62000173949392919062000aee565b604051809103905ff0801580156200018d573d5f803e3d5ffd5b5090507fc5d7346247c6d2ba52de925ca697bf6c93e96e0b51e41bb21a27276915d8a1808282604051620001c392919062000b47565b60405180910390a15050505050505050505050565b620001e262000263565b5f73ffffffffffffffffffffffffffffffffffffffff168173ffffffffffffffffffffffffffffffffffffffff160362000255575f6040517f1e4fbdf70000000000000000000000000000000000000000000000000000000081526004016200024c91906200041a565b60405180910390fd5b6200026081620002f3565b50565b6200026d620003b4565b73ffffffffffffffffffffffffffffffffffffffff166200028d620000d9565b73ffffffffffffffffffffffffffffffffffffffff1614620002f157620002b3620003b4565b6040517f118cdaa7000000000000000000000000000000000000000000000000000000008152600401620002e891906200041a565b60405180910390fd5b565b5f805f9054906101000a900473ffffffffffffffffffffffffffffffffffffffff169050815f806101000a81548173ffffffffffffffffffffffffffffffffffffffff021916908373ffffffffffffffffffffffffffffffffffffffff1602179055508173ffffffffffffffffffffffffffffffffffffffff168173ffffffffffffffffffffffffffffffffffffffff167f8be0079c531659141344cd1fd0a4f28419497f9722a3daafe3b4186f6b6457e060405160405180910390a35050565b5f33905090565b613a238062000b7383390190565b6124f6806200459683390190565b5f73ffffffffffffffffffffffffffffffffffffffff82169050919050565b5f6200040282620003d7565b9050919050565b6200041481620003f6565b82525050565b5f6020820190506200042f5f83018462000409565b92915050565b5f604051905090565b5f80fd5b5f80fd5b5f80fd5b5f80fd5b5f601f19601f8301169050919050565b7f4e487b71000000000000000000000000000000000000000000000000000000005f52604160045260245ffd5b62000496826200044e565b810181811067ffffffffffffffff82111715620004b857620004b76200045e565b5b80604052505050565b5f620004cc62000435565b9050620004da82826200048b565b919050565b5f67ffffffffffffffff821115620004fc57620004fb6200045e565b5b62000507826200044e565b9050602081019050919050565b828183375f83830152505050565b5f620005386200053284620004df565b620004c1565b9050828152602081018484840111156200055757620005566200044a565b5b6200056484828562000514565b509392505050565b5f82601f83011262000583576200058262000446565b5b81356200059584826020860162000522565b91505092915050565b5f819050919050565b620005b2816200059e565b8114620005bd575f80fd5b50565b5f81359050620005d081620005a7565b92915050565b5f8115159050919050565b620005ec81620005d6565b8114620005f7575f80fd5b50565b5f813590506200060a81620005e1565b92915050565b5f67ffffffffffffffff8211156200062d576200062c6200045e565b5b602082029050602081019050919050565b5f80fd5b6200064d81620003f6565b811462000658575f80fd5b50565b5f813590506200066b8162000642565b92915050565b5f62000687620006818462000610565b620004c1565b90508083825260208201905060208402830185811115620006ad57620006ac6200063e565b5b835b81811015620006da5780620006c588826200065b565b845260208401935050602081019050620006af565b5050509392505050565b5f82601f830112620006fb57620006fa62000446565b5b81356200070d84826020860162000671565b91505092915050565b5f805f805f805f805f6101208a8c0312156200073757620007366200043e565b5b5f8a013567ffffffffffffffff81111562000757576200075662000442565b5b620007658c828d016200056c565b99505060208a013567ffffffffffffffff81111562000789576200078862000442565b5b620007978c828d016200056c565b98505060408a013567ffffffffffffffff811115620007bb57620007ba62000442565b5b620007c98c828d016200056c565b97505060608a013567ffffffffffffffff811115620007ed57620007ec62000442565b5b620007fb8c828d016200056c565b96505060806200080e8c828d01620005c0565b95505060a0620008218c828d01620005c0565b94505060c0620008348c828d01620005fa565b93505060e08a013567ffffffffffffffff81111562000858576200085762000442565b5b620008668c828d01620006e4565b9250506101008a013567ffffffffffffffff8111156200088b576200088a62000442565b5b620008998c828d01620006e4565b9150509295985092959850929598565b5f60208284031215620008c157620008c06200043e565b5b5f620008d0848285016200065b565b91505092915050565b5f81519050919050565b5f82825260208201905092915050565b5f5b8381101562000912578082015181840152602081019050620008f5565b5f8484015250505050565b5f6200092982620008d9565b620009358185620008e3565b935062000947818560208601620008f3565b62000952816200044e565b840191505092915050565b62000968816200059e565b82525050565b6200097981620005d6565b82525050565b5f61010082019050620009955f83018b62000409565b8181036020830152620009a9818a6200091d565b90508181036040830152620009bf81896200091d565b90508181036060830152620009d581886200091d565b90508181036080830152620009eb81876200091d565b9050620009fc60a08301866200095d565b62000a0b60c08301856200095d565b62000a1a60e08301846200096e565b9998505050505050505050565b5f81519050919050565b5f82825260208201905092915050565b5f819050602082019050919050565b62000a5b81620003f6565b82525050565b5f62000a6e838362000a50565b60208301905092915050565b5f602082019050919050565b5f62000a928262000a27565b62000a9e818562000a31565b935062000aab8362000a41565b805f5b8381101562000ae157815162000ac5888262000a61565b975062000ad28362000a7a565b92505060018101905062000aae565b5085935050505092915050565b5f60808201905062000b035f83018762000409565b62000b12602083018662000409565b818103604083015262000b26818562000a86565b9050818103606083015262000b3c818462000a86565b905095945050505050565b5f60408201905062000b5c5f83018562000409565b62000b6b602083018462000409565b939250505056fe608060405234801562000010575f80fd5b5060405162003a2338038062003a23833981810160405281019062000036919062000492565b875f73ffffffffffffffffffffffffffffffffffffffff168173ffffffffffffffffffffffffffffffffffffffff1603620000aa575f6040517f1e4fbdf7000000000000000000000000000000000000000000000000000000008152600401620000a19190620005e3565b60405180910390fd5b620000bb816200017960201b60201c565b508660019081620000cd91906200082c565b508560029081620000df91906200082c565b508760035f6101000a81548173ffffffffffffffffffffffffffffffffffffffff021916908373ffffffffffffffffffffffffffffffffffffffff16021790555084600490816200013191906200082c565b5083600590816200014391906200082c565b50826006819055508160078190555080600b5f6101000a81548160ff021916908315150217905550505050505050505062000910565b5f805f9054906101000a900473ffffffffffffffffffffffffffffffffffffffff169050815f806101000a81548173ffffffffffffffffffffffffffffffffffffffff021916908373ffffffffffffffffffffffffffffffffffffffff1602179055508173ffffffffffffffffffffffffffffffffffffffff168173ffffffffffffffffffffffffffffffffffffffff167f8be0079c531659141344cd1fd0a4f28419497f9722a3daafe3b4186f6b6457e060405160405180910390a35050565b5f604051905090565b5f80fd5b5f80fd5b5f73ffffffffffffffffffffffffffffffffffffffff82169050919050565b5f62000276826200024b565b9050919050565b62000288816200026a565b811462000293575f80fd5b50565b5f81519050620002a6816200027d565b92915050565b5f80fd5b5f80fd5b5f601f19601f8301169050919050565b7f4e487b71000000000000000000000000000000000000000000000000000000005f52604160045260245ffd5b620002fc82620002b4565b810181811067ffffffffffffffff821117156200031e576200031d620002c4565b5b80604052505050565b5f620003326200023a565b9050620003408282620002f1565b919050565b5f67ffffffffffffffff821115620003625762000361620002c4565b5b6200036d82620002b4565b9050602081019050919050565b5f5b83811015620003995780820151818401526020810190506200037c565b5f8484015250505050565b5f620003ba620003b48462000345565b62000327565b905082815260208101848484011115620003d957620003d8620002b0565b5b620003e68482856200037a565b509392505050565b5f82601f830112620004055762000404620002ac565b5b815162000417848260208601620003a4565b91505092915050565b5f819050919050565b620004348162000420565b81146200043f575f80fd5b50565b5f81519050620004528162000429565b92915050565b5f8115159050919050565b6200046e8162000458565b811462000479575f80fd5b50565b5f815190506200048c8162000463565b92915050565b5f805f805f805f80610100898b031215620004b257620004b162000243565b5b5f620004c18b828c0162000296565b985050602089015167ffffffffffffffff811115620004e557620004e462000247565b5b620004f38b828c01620003ee565b975050604089015167ffffffffffffffff81111562000517576200051662000247565b5b620005258b828c01620003ee565b965050606089015167ffffffffffffffff81111562000549576200054862000247565b5b620005578b828c01620003ee565b955050608089015167ffffffffffffffff8111156200057b576200057a62000247565b5b620005898b828c01620003ee565b94505060a06200059c8b828c0162000442565b93505060c0620005af8b828c0162000442565b92505060e0620005c28b828c016200047c565b9150509295985092959890939650565b620005dd816200026a565b82525050565b5f602082019050620005f85f830184620005d2565b92915050565b5f81519050919050565b7f4e487b71000000000000000000000000000000000000000000000000000000005f52602260045260245ffd5b5f60028204905060018216806200064d57607f821691505b60208210810362000663576200066262000608565b5b50919050565b5f819050815f5260205f209050919050565b5f6020601f8301049050919050565b5f82821b905092915050565b5f60088302620006c77fffffffffffffffffffffffffffffffffffffffffffffffffffffffffffffffff826200068a565b620006d386836200068a565b95508019841693508086168417925050509392505050565b5f819050919050565b5f620007146200070e620007088462000420565b620006eb565b62000420565b9050919050565b5f819050919050565b6200072f83620006f4565b620007476200073e826200071b565b84845462000696565b825550505050565b5f90565b6200075d6200074f565b6200076a81848462000724565b505050565b5b818110156200079157620007855f8262000753565b60018101905062000770565b5050565b601f821115620007e057620007aa8162000669565b620007b5846200067b565b81016020851015620007c5578190505b620007dd620007d4856200067b565b8301826200076f565b50505b505050565b5f82821c905092915050565b5f620008025f1984600802620007e5565b1980831691505092915050565b5f6200081c8383620007f1565b9150826002028217905092915050565b6200083782620005fe565b67ffffffffffffffff811115620008535762000852620002c4565b5b6200085f825462000635565b6200086c82828562000795565b5f60209050601f831160018114620008a2575f84156200088d578287015190505b6200089985826200080f565b86555062000908565b601f198416620008b28662000669565b5f5b82811015620008db57848901518255600182019150602085019450602081019050620008b4565b86831015620008fb5784890151620008f7601f891682620007f1565b8355505b6001600288020188555050505b505050505050565b613105806200091e5f395ff3fe608060405234801561000f575f80fd5b506004361061014b575f3560e01c80637284e416116100c1578063ba66f5761161007a578063ba66f5761461036d578063c9d27afe1461038b578063d9728d09146103a7578063f20f3d90146103d7578063f2fde38b146103f5578063f8024d10146104115761014b565b80637284e416146102ab5780638da5cb5b146102c957806398041ea3146102e7578063997072f714610303578063a230c52414610321578063a818d304146103515761014b565b80631703a018116101135780631703a018146101fb5780631e1980bb1461021957806343859632146102355780636282773314610265578063665d396d14610283578063715018a6146102a15761014b565b8063013cf08b1461014f57806302d05d3f1461018757806306fdde03146101a55780630b1ca49a146101c35780630d61b519146101df575b5f80fd5b61016960048036038101906101649190611b9f565b610441565b60405161017e99989796959493929190611d81565b60405180910390f35b61018f6105dd565b60405161019c9190611e1a565b60405180910390f35b6101ad610602565b6040516101ba9190611e33565b60405180910390f35b6101dd60048036038101906101d89190611e7d565b61068e565b005b6101f960048036038101906101f49190611b9f565b61076d565b005b610203610c3e565b6040516102109190611ea8565b60405180910390f35b610233600480360381019061022e9190611eeb565b610c44565b005b61024f600480360381019061024a9190611f3b565b610cb1565b60405161025c9190611f79565b60405180910390f35b61026d610cdb565b60405161027a9190611ea8565b60405180910390f35b61028b610ce1565b6040516102989190611f79565b60405180910390f35b6102a9610cf3565b005b6102b3610d06565b6040516102c09190611e33565b60405180910390f35b6102d1610d92565b6040516102de9190611e1a565b60405180910390f35b61030160048036038101906102fc9190611f92565b610db9565b005b61030b610ee0565b6040516103189190611ea8565b60405180910390f35b61033b60048036038101906103369190611e7d565b610ef0565b6040516103489190611f79565b60405180910390f35b61036b6004803603810190610366919061219a565b610f0c565b005b61037561119d565b6040516103829190611e33565b60405180910390f35b6103a560048036038101906103a09190612236565b611229565b005b6103c160048036038101906103bc9190611e7d565b611616565b6040516103ce9190611ea8565b60405180910390f35b6103df61162b565b6040516103ec9190611e33565b60405180910390f35b61040f600480360381019061040a9190611e7d565b6116b7565b005b61042b60048036038101906104269190611b9f565b61173b565b6040516104389190611e1a565b60405180910390f35b600c8181548110610450575f80fd5b905f5260205f2090600902015f91509050805f01805461046f906122a1565b80601f016020809104026020016040519081016040528092919081815260200182805461049b906122a1565b80156104e65780601f106104bd576101008083540402835291602001916104e6565b820191905f5260205f20905b8154815290600101906020018083116104c957829003601f168201915b505050505090806001015490806002015490806003015f9054906101000a900473ffffffffffffffffffffffffffffffffffffffff169080600401805461052c906122a1565b80601f0160208091040260200160405190810160405280929190818152602001828054610558906122a1565b80156105a35780601f1061057a576101008083540402835291602001916105a3565b820191905f5260205f20905b81548152906001019060200180831161058657829003601f168201915b505050505090806005015f9054906101000a900460ff1690806006015490806007015490806008015f9054906101000a900460ff16905089565b60035f9054906101000a900473ffffffffffffffffffffffffffffffffffffffff1681565b6001805461060f906122a1565b80601f016020809104026020016040519081016040528092919081815260200182805461063b906122a1565b80156106865780601f1061065d57610100808354040283529160200191610686565b820191905f5260205f20905b81548152906001019060200180831161066957829003601f168201915b505050505081565b6106966117a2565b61069f81610ef0565b6106de576040517f08c379a00000000000000000000000000000000000000000000000000000000081526004016106d59061231b565b60405180910390fd5b6106f281600961182990919063ffffffff16565b5060085f8273ffffffffffffffffffffffffffffffffffffffff1673ffffffffffffffffffffffffffffffffffffffff1681526020019081526020015f205f90557f6e76fb4c77256006d9c38ec7d82b45a8c8f3c27b1d6766fffc42dfb8de684492816040516107629190611e1a565b60405180910390a150565b6107756117a2565b600c8054905081106107bc576040517f08c379a00000000000000000000000000000000000000000000000000000000081526004016107b390612383565b60405180910390fd5b5f60028111156107cf576107ce611cf4565b5b600c82815481106107e3576107e26123a1565b5b905f5260205f2090600902016005015f9054906101000a900460ff16600281111561081157610810611cf4565b5b14610851576040517f08c379a000000000000000000000000000000000000000000000000000000000815260040161084890612418565b60405180910390fd5b600c8181548110610865576108646123a1565b5b905f5260205f2090600902016008015f9054906101000a900460ff16156108c1576040517f08c379a00000000000000000000000000000000000000000000000000000000081526004016108b890612480565b60405180910390fd5b600c81815481106108d5576108d46123a1565b5b905f5260205f209060090201600201544211610926576040517f08c379a000000000000000000000000000000000000000000000000000000000815260040161091d906124e8565b60405180910390fd5b5f805b6109336009611856565b8110156109a55760085f61095183600961186990919063ffffffff16565b73ffffffffffffffffffffffffffffffffffffffff1673ffffffffffffffffffffffffffffffffffffffff1681526020019081526020015f2054826109969190612533565b91508080600101915050610929565b505f600c83815481106109bb576109ba6123a1565b5b905f5260205f209060090201600601549050600654821015610a12576040517f08c379a0000000000000000000000000000000000000000000000000000000008152600401610a09906125b0565b60405180910390fd5b606460075483610a2291906125ce565b610a2c919061263c565b8111610a6d576040517f08c379a0000000000000000000000000000000000000000000000000000000008152600401610a64906126b6565b60405180910390fd5b6002600c8481548110610a8357610a826123a1565b5b905f5260205f2090600902016005015f6101000a81548160ff02191690836002811115610ab357610ab2611cf4565b5b02179055506001600c8481548110610ace57610acd6123a1565b5b905f5260205f2090600902016008015f6101000a81548160ff0219169083151502179055505f600c8481548110610b0857610b076123a1565b5b905f5260205f2090600902016003015f9054906101000a900473ffffffffffffffffffffffffffffffffffffffff1673ffffffffffffffffffffffffffffffffffffffff16600c8581548110610b6157610b606123a1565b5b905f5260205f209060090201600401604051610b7d9190612770565b5f604051808303815f865af19150503d805f8114610bb6576040519150601f19603f3d011682016040523d82523d5f602084013e610bbb565b606091505b5050905080610bff576040517f08c379a0000000000000000000000000000000000000000000000000000000008152600401610bf6906127d0565b60405180910390fd5b7f9c85b616f29fca57a17eafe71cf9ff82ffef41766e2cf01ea7f8f7878dd3ec248433604051610c309291906127ee565b60405180910390a150505050565b60065481565b610c4c6117a2565b826006819055508160078190555080600b5f6101000a81548160ff0219169083151502179055507fae4295db1ce19afb7a30b45b0c2c7d0d17a2afa07b0e23caa4ada46ae1eee1ca8383604051610ca4929190612815565b60405180910390a1505050565b600d602052815f5260405f20602052805f5260405f205f915091509054906101000a900460ff1681565b60075481565b600b5f9054906101000a900460ff1681565b610cfb6117a2565b610d045f611880565b565b60028054610d13906122a1565b80601f0160208091040260200160405190810160405280929190818152602001828054610d3f906122a1565b8015610d8a5780601f10610d6157610100808354040283529160200191610d8a565b820191905f5260205f20905b815481529060010190602001808311610d6d57829003601f168201915b505050505081565b5f805f9054906101000a900473ffffffffffffffffffffffffffffffffffffffff16905090565b610dc16117a2565b610dca82610ef0565b15610e0a576040517f08c379a0000000000000000000000000000000000000000000000000000000008152600401610e0190612886565b60405180910390fd5b5f8111610e4c576040517f08c379a0000000000000000000000000000000000000000000000000000000008152600401610e4390612914565b60405180910390fd5b610e6082600961194190919063ffffffff16565b508060085f8473ffffffffffffffffffffffffffffffffffffffff1673ffffffffffffffffffffffffffffffffffffffff1681526020019081526020015f20819055507fede8eed4383e9241982619b94dd83e488b274cced0fd07b8c0092a393defd52f8282604051610ed4929190612932565b60405180910390a15050565b5f610eeb6009611856565b905090565b5f610f0582600961196e90919063ffffffff16565b9050919050565b600b5f9054906101000a900460ff161580610f2c5750610f2b33610ef0565b5b610f6b576040517f08c379a0000000000000000000000000000000000000000000000000000000008152600401610f62906129c9565b60405180910390fd5b5f8111610fad576040517f08c379a0000000000000000000000000000000000000000000000000000000008152600401610fa490612a57565b60405180910390fd5b5f4290505f6201518083610fc191906125ce565b82610fcc9190612533565b9050600c6040518061012001604052808881526020018481526020018381526020018773ffffffffffffffffffffffffffffffffffffffff1681526020018681526020015f600281111561102357611022611cf4565b5b81526020015f81526020015f81526020015f1515815250908060018154018082558091505060019003905f5260205f2090600902015f909190919091505f820151815f0190816110739190612c12565b5060208201518160010155604082015181600201556060820151816003015f6101000a81548173ffffffffffffffffffffffffffffffffffffffff021916908373ffffffffffffffffffffffffffffffffffffffff16021790555060808201518160040190816110e39190612d27565b5060a0820151816005015f6101000a81548160ff0219169083600281111561110e5761110d611cf4565b5b021790555060c0820151816006015560e08201518160070155610100820151816008015f6101000a81548160ff02191690831515021790555050507fc8c078bfee58e5822588f08b4509ed1eb5058e03f666cca84dd2d44bf5c288a86001600c8054905061117c9190612df6565b873360405161118d93929190612e29565b60405180910390a1505050505050565b600580546111aa906122a1565b80601f01602080910402602001604051908101604052809291908181526020018280546111d6906122a1565b80156112215780601f106111f857610100808354040283529160200191611221565b820191905f5260205f20905b81548152906001019060200180831161120457829003601f168201915b505050505081565b61123233610ef0565b611271576040517f08c379a000000000000000000000000000000000000000000000000000000000815260040161126890612eaf565b60405180910390fd5b600c8054905082106112b8576040517f08c379a00000000000000000000000000000000000000000000000000000000081526004016112af90612383565b60405180910390fd5b5f60028111156112cb576112ca611cf4565b5b600c83815481106112df576112de6123a1565b5b905f5260205f2090600902016005015f9054906101000a900460ff16600281111561130d5761130c611cf4565b5b1461134d576040517f08c379a000000000000000000000000000000000000000000000000000000000815260040161134490612f17565b60405180910390fd5b600c8281548110611361576113606123a1565b5b905f5260205f2090600902016001015442101580156113a35750600c828154811061138f5761138e6123a1565b5b905f5260205f209060090201600201544211155b6113e2576040517f08c379a00000000000000000000000000000000000000000000000000000000081526004016113d990612f7f565b60405180910390fd5b600d5f8381526020019081526020015f205f3373ffffffffffffffffffffffffffffffffffffffff1673ffffffffffffffffffffffffffffffffffffffff1681526020019081526020015f205f9054906101000a900460ff161561147b576040517f08c379a000000000000000000000000000000000000000000000000000000000815260040161147290612fe7565b60405180910390fd5b6001600d5f8481526020019081526020015f205f3373ffffffffffffffffffffffffffffffffffffffff1673ffffffffffffffffffffffffffffffffffffffff1681526020019081526020015f205f6101000a81548160ff02191690831515021790555080156115605760085f3373ffffffffffffffffffffffffffffffffffffffff1673ffffffffffffffffffffffffffffffffffffffff1681526020019081526020015f2054600c8381548110611537576115366123a1565b5b905f5260205f2090600902016006015f8282546115549190612533565b925050819055506115d7565b60085f3373ffffffffffffffffffffffffffffffffffffffff1673ffffffffffffffffffffffffffffffffffffffff1681526020019081526020015f2054600c83815481106115b2576115b16123a1565b5b905f5260205f2090600902016007015f8282546115cf9190612533565b925050819055505b7fe71fcdac32df1877c1700e7bda2a03157e20993363a28fc35ac495cefc76e4d482338360405161160a93929190613005565b60405180910390a15050565b6008602052805f5260405f205f915090505481565b60048054611638906122a1565b80601f0160208091040260200160405190810160405280929190818152602001828054611664906122a1565b80156116af5780601f10611686576101008083540402835291602001916116af565b820191905f5260205f20905b81548152906001019060200180831161169257829003601f168201915b505050505081565b6116bf6117a2565b5f73ffffffffffffffffffffffffffffffffffffffff168173ffffffffffffffffffffffffffffffffffffffff160361172f575f6040517f1e4fbdf70000000000000000000000000000000000000000000000000000000081526004016117269190611e1a565b60405180910390fd5b61173881611880565b50565b5f6117466009611856565b8210611787576040517f08c379a000000000000000000000000000000000000000000000000000000000815260040161177e90613084565b60405180910390fd5b61179b82600961186990919063ffffffff16565b9050919050565b6117aa61199b565b73ffffffffffffffffffffffffffffffffffffffff166117c8610d92565b73ffffffffffffffffffffffffffffffffffffffff1614611827576117eb61199b565b6040517f118cdaa700000000000000000000000000000000000000000000000000000000815260040161181e9190611e1a565b60405180910390fd5b565b5f61184e835f018373ffffffffffffffffffffffffffffffffffffffff165f1b6119a2565b905092915050565b5f611862825f01611a9e565b9050919050565b5f611876835f0183611aad565b5f1c905092915050565b5f805f9054906101000a900473ffffffffffffffffffffffffffffffffffffffff169050815f806101000a81548173ffffffffffffffffffffffffffffffffffffffff021916908373ffffffffffffffffffffffffffffffffffffffff1602179055508173ffffffffffffffffffffffffffffffffffffffff168173ffffffffffffffffffffffffffffffffffffffff167f8be0079c531659141344cd1fd0a4f28419497f9722a3daafe3b4186f6b6457e060405160405180910390a35050565b5f611966835f018373ffffffffffffffffffffffffffffffffffffffff165f1b611ad4565b905092915050565b5f611993835f018373ffffffffffffffffffffffffffffffffffffffff165f1b611b3b565b905092915050565b5f33905090565b5f80836001015f8481526020019081526020015f205490505f8114611a93575f6001826119cf9190612df6565b90505f6001865f01805490506119e59190612df6565b9050808214611a4b575f865f018281548110611a0457611a036123a1565b5b905f5260205f200154905080875f018481548110611a2557611a246123a1565b5b905f5260205f20018190555083876001015f8381526020019081526020015f2081905550505b855f01805480611a5e57611a5d6130a2565b5b600190038181905f5260205f20015f90559055856001015f8681526020019081526020015f205f905560019350505050611a98565b5f9150505b92915050565b5f815f01805490509050919050565b5f825f018281548110611ac357611ac26123a1565b5b905f5260205f200154905092915050565b5f611adf8383611b3b565b611b3157825f0182908060018154018082558091505060019003905f5260205f20015f9091909190915055825f0180549050836001015f8481526020019081526020015f208190555060019050611b35565b5f90505b92915050565b5f80836001015f8481526020019081526020015f20541415905092915050565b5f604051905090565b5f80fd5b5f80fd5b5f819050919050565b611b7e81611b6c565b8114611b88575f80fd5b50565b5f81359050611b9981611b75565b92915050565b5f60208284031215611bb457611bb3611b64565b5b5f611bc184828501611b8b565b91505092915050565b5f81519050919050565b5f82825260208201905092915050565b5f5b83811015611c01578082015181840152602081019050611be6565b5f8484015250505050565b5f601f19601f8301169050919050565b5f611c2682611bca565b611c308185611bd4565b9350611c40818560208601611be4565b611c4981611c0c565b840191505092915050565b611c5d81611b6c565b82525050565b5f73ffffffffffffffffffffffffffffffffffffffff82169050919050565b5f611c8c82611c63565b9050919050565b611c9c81611c82565b82525050565b5f81519050919050565b5f82825260208201905092915050565b5f611cc682611ca2565b611cd08185611cac565b9350611ce0818560208601611be4565b611ce981611c0c565b840191505092915050565b7f4e487b71000000000000000000000000000000000000000000000000000000005f52602160045260245ffd5b60038110611d3257611d31611cf4565b5b50565b5f819050611d4282611d21565b919050565b5f611d5182611d35565b9050919050565b611d6181611d47565b82525050565b5f8115159050919050565b611d7b81611d67565b82525050565b5f610120820190508181035f830152611d9a818c611c1c565b9050611da9602083018b611c54565b611db6604083018a611c54565b611dc36060830189611c93565b8181036080830152611dd58188611cbc565b9050611de460a0830187611d58565b611df160c0830186611c54565b611dfe60e0830185611c54565b611e0c610100830184611d72565b9a9950505050505050505050565b5f602082019050611e2d5f830184611c93565b92915050565b5f6020820190508181035f830152611e4b8184611c1c565b905092915050565b611e5c81611c82565b8114611e66575f80fd5b50565b5f81359050611e7781611e53565b92915050565b5f60208284031215611e9257611e91611b64565b5b5f611e9f84828501611e69565b91505092915050565b5f602082019050611ebb5f830184611c54565b92915050565b611eca81611d67565b8114611ed4575f80fd5b50565b5f81359050611ee581611ec1565b92915050565b5f805f60608486031215611f0257611f01611b64565b5b5f611f0f86828701611b8b565b9350506020611f2086828701611b8b565b9250506040611f3186828701611ed7565b9150509250925092565b5f8060408385031215611f5157611f50611b64565b5b5f611f5e85828601611b8b565b9250506020611f6f85828601611e69565b9150509250929050565b5f602082019050611f8c5f830184611d72565b92915050565b5f8060408385031215611fa857611fa7611b64565b5b5f611fb585828601611e69565b9250506020611fc685828601611b8b565b9150509250929050565b5f80fd5b5f80fd5b7f4e487b71000000000000000000000000000000000000000000000000000000005f52604160045260245ffd5b61200e82611c0c565b810181811067ffffffffffffffff8211171561202d5761202c611fd8565b5b80604052505050565b5f61203f611b5b565b905061204b8282612005565b919050565b5f67ffffffffffffffff82111561206a57612069611fd8565b5b61207382611c0c565b9050602081019050919050565b828183375f83830152505050565b5f6120a061209b84612050565b612036565b9050828152602081018484840111156120bc576120bb611fd4565b5b6120c7848285612080565b509392505050565b5f82601f8301126120e3576120e2611fd0565b5b81356120f384826020860161208e565b91505092915050565b5f67ffffffffffffffff82111561211657612115611fd8565b5b61211f82611c0c565b9050602081019050919050565b5f61213e612139846120fc565b612036565b90508281526020810184848401111561215a57612159611fd4565b5b612165848285612080565b509392505050565b5f82601f83011261218157612180611fd0565b5b813561219184826020860161212c565b91505092915050565b5f805f80608085870312156121b2576121b1611b64565b5b5f85013567ffffffffffffffff8111156121cf576121ce611b68565b5b6121db878288016120cf565b94505060206121ec87828801611e69565b935050604085013567ffffffffffffffff81111561220d5761220c611b68565b5b6122198782880161216d565b925050606061222a87828801611b8b565b91505092959194509250565b5f806040838503121561224c5761224b611b64565b5b5f61225985828601611b8b565b925050602061226a85828601611ed7565b9150509250929050565b7f4e487b71000000000000000000000000000000000000000000000000000000005f52602260045260245ffd5b5f60028204905060018216806122b857607f821691505b6020821081036122cb576122ca612274565b5b50919050565b7f4d656d62657220646f6573206e6f742065786973742e000000000000000000005f82015250565b5f612305601683611bd4565b9150612310826122d1565b602082019050919050565b5f6020820190508181035f830152612332816122f9565b9050919050565b7f496e76616c69642070726f706f73616c2049442e0000000000000000000000005f82015250565b5f61236d601483611bd4565b915061237882612339565b602082019050919050565b5f6020820190508181035f83015261239a81612361565b9050919050565b7f4e487b71000000000000000000000000000000000000000000000000000000005f52603260045260245ffd5b7f50726f706f73616c206973206e6f74206f70656e2e00000000000000000000005f82015250565b5f612402601583611bd4565b915061240d826123ce565b602082019050919050565b5f6020820190508181035f83015261242f816123f6565b9050919050565b7f50726f706f73616c20616c72656164792065786563757465642e0000000000005f82015250565b5f61246a601a83611bd4565b915061247582612436565b602082019050919050565b5f6020820190508181035f8301526124978161245e565b9050919050565b7f566f74696e6720706572696f6420686173206e6f7420656e6465642e000000005f82015250565b5f6124d2601c83611bd4565b91506124dd8261249e565b602082019050919050565b5f6020820190508181035f8301526124ff816124c6565b9050919050565b7f4e487b71000000000000000000000000000000000000000000000000000000005f52601160045260245ffd5b5f61253d82611b6c565b915061254883611b6c565b92508282019050808211156125605761255f612506565b5b92915050565b7f51756f72756d206e6f7420726561636865642e000000000000000000000000005f82015250565b5f61259a601383611bd4565b91506125a582612566565b602082019050919050565b5f6020820190508181035f8301526125c78161258e565b9050919050565b5f6125d882611b6c565b91506125e383611b6c565b92508282026125f181611b6c565b9150828204841483151761260857612607612506565b5b5092915050565b7f4e487b71000000000000000000000000000000000000000000000000000000005f52601260045260245ffd5b5f61264682611b6c565b915061265183611b6c565b9250826126615761266061260f565b5b828204905092915050565b7f566f74696e67207468726573686f6c64206e6f7420726561636865642e0000005f82015250565b5f6126a0601d83611bd4565b91506126ab8261266c565b602082019050919050565b5f6020820190508181035f8301526126cd81612694565b9050919050565b5f81905092915050565b5f819050815f5260205f209050919050565b5f81546126fc816122a1565b61270681866126d4565b9450600182165f8114612720576001811461273557612767565b60ff1983168652811515820286019350612767565b61273e856126de565b5f5b8381101561275f57815481890152600182019150602081019050612740565b838801955050505b50505092915050565b5f61277b82846126f0565b915081905092915050565b7f43616c6c206661696c65642e00000000000000000000000000000000000000005f82015250565b5f6127ba600c83611bd4565b91506127c582612786565b602082019050919050565b5f6020820190508181035f8301526127e7816127ae565b9050919050565b5f6040820190506128015f830185611c54565b61280e6020830184611c93565b9392505050565b5f6040820190506128285f830185611c54565b6128356020830184611c54565b9392505050565b7f4d656d62657220616c7265616479206578697374732e000000000000000000005f82015250565b5f612870601683611bd4565b915061287b8261283c565b602082019050919050565b5f6020820190508181035f83015261289d81612864565b9050919050565b7f576569676874206d7573742062652067726561746572207468616e207a65726f5f8201527f2e00000000000000000000000000000000000000000000000000000000000000602082015250565b5f6128fe602183611bd4565b9150612909826128a4565b604082019050919050565b5f6020820190508181035f83015261292b816128f2565b9050919050565b5f6040820190506129455f830185611c93565b6129526020830184611c54565b9392505050565b7f4f6e6c79206d656d626572732063616e206372656174652070726f706f73616c5f8201527f732e000000000000000000000000000000000000000000000000000000000000602082015250565b5f6129b3602283611bd4565b91506129be82612959565b604082019050919050565b5f6020820190508181035f8301526129e0816129a7565b9050919050565b7f4475726174696f6e206d7573742062652067726561746572207468616e207a655f8201527f726f2e0000000000000000000000000000000000000000000000000000000000602082015250565b5f612a41602383611bd4565b9150612a4c826129e7565b604082019050919050565b5f6020820190508181035f830152612a6e81612a35565b9050919050565b5f819050815f5260205f209050919050565b5f6020601f8301049050919050565b5f82821b905092915050565b5f60088302612ad17fffffffffffffffffffffffffffffffffffffffffffffffffffffffffffffffff82612a96565b612adb8683612a96565b95508019841693508086168417925050509392505050565b5f819050919050565b5f612b16612b11612b0c84611b6c565b612af3565b611b6c565b9050919050565b5f819050919050565b612b2f83612afc565b612b43612b3b82612b1d565b848454612aa2565b825550505050565b5f90565b612b57612b4b565b612b62818484612b26565b505050565b5b81811015612b8557612b7a5f82612b4f565b600181019050612b68565b5050565b601f821115612bca57612b9b81612a75565b612ba484612a87565b81016020851015612bb3578190505b612bc7612bbf85612a87565b830182612b67565b50505b505050565b5f82821c905092915050565b5f612bea5f1984600802612bcf565b1980831691505092915050565b5f612c028383612bdb565b9150826002028217905092915050565b612c1b82611bca565b67ffffffffffffffff811115612c3457612c33611fd8565b5b612c3e82546122a1565b612c49828285612b89565b5f60209050601f831160018114612c7a575f8415612c68578287015190505b612c728582612bf7565b865550612cd9565b601f198416612c8886612a75565b5f5b82811015612caf57848901518255600182019150602085019450602081019050612c8a565b86831015612ccc5784890151612cc8601f891682612bdb565b8355505b6001600288020188555050505b505050505050565b601f821115612d2257612cf3816126de565b612cfc84612a87565b81016020851015612d0b578190505b612d1f612d1785612a87565b830182612b67565b50505b505050565b612d3082611ca2565b67ffffffffffffffff811115612d4957612d48611fd8565b5b612d5382546122a1565b612d5e828285612ce1565b5f60209050601f831160018114612d8f575f8415612d7d578287015190505b612d878582612bf7565b865550612dee565b601f198416612d9d866126de565b5f5b82811015612dc457848901518255600182019150602085019450602081019050612d9f565b86831015612de15784890151612ddd601f891682612bdb565b8355505b6001600288020188555050505b505050505050565b5f612e0082611b6c565b9150612e0b83611b6c565b9250828203905081811115612e2357612e22612506565b5b92915050565b5f606082019050612e3c5f830186611c54565b8181036020830152612e4e8185611c1c565b9050612e5d6040830184611c93565b949350505050565b7f4f6e6c79206d656d626572732063616e20766f74652e000000000000000000005f82015250565b5f612e99601683611bd4565b9150612ea482612e65565b602082019050919050565b5f6020820190508181035f830152612ec681612e8d565b9050919050565b7f50726f706f73616c206973206e6f74206f70656e20666f7220766f74696e672e5f82015250565b5f612f01602083611bd4565b9150612f0c82612ecd565b602082019050919050565b5f6020820190508181035f830152612f2e81612ef5565b9050919050565b7f566f74696e67206973206e6f74206163746976652e00000000000000000000005f82015250565b5f612f69601583611bd4565b9150612f7482612f35565b602082019050919050565b5f6020820190508181035f830152612f9681612f5d565b9050919050565b7f416c726561647920766f7465642e0000000000000000000000000000000000005f82015250565b5f612fd1600e83611bd4565b9150612fdc82612f9d565b602082019050919050565b5f6020820190508181035f830152612ffe81612fc5565b9050919050565b5f6060820190506130185f830186611c54565b6130256020830185611c93565b6130326040830184611d72565b949350505050565b7f496e646578206f7574206f6620626f756e64732e0000000000000000000000005f82015250565b5f61306e601483611bd4565b91506130798261303a565b602082019050919050565b5f6020820190508181035f83015261309b81613062565b9050919050565b7f4e487b71000000000000000000000000000000000000000000000000000000005f52603160045260245ffdfea26469706673582212201bb9f11fcdc276f578dfca91802b8e9276a2222b61114244103a706331327b8764736f6c63430008160033608060405234801562000010575f80fd5b50604051620024f6380380620024f683398181016040528101906200003691906200070e565b835f73ffffffffffffffffffffffffffffffffffffffff168173ffffffffffffffffffffffffffffffffffffffff1603620000aa575f6040517f1e4fbdf7000000000000000000000000000000000000000000000000000000008152600401620000a19190620007cc565b60405180910390fd5b620000bb81620003a960201b60201c565b50600180819055505f73ffffffffffffffffffffffffffffffffffffffff168473ffffffffffffffffffffffffffffffffffffffff160362000134576040517f08c379a00000000000000000000000000000000000000000000000000000000081526004016200012b9062000845565b60405180910390fd5b5f73ffffffffffffffffffffffffffffffffffffffff168373ffffffffffffffffffffffffffffffffffffffff1603620001a5576040517f08c379a00000000000000000000000000000000000000000000000000000000081526004016200019c90620008b3565b60405180910390fd5b8260065f6101000a81548173ffffffffffffffffffffffffffffffffffffffff021916908373ffffffffffffffffffffffffffffffffffffffff1602179055505f5b8251811015620002c1575f73ffffffffffffffffffffffffffffffffffffffff168382815181106200021e576200021d620008d3565b5b602002602001015173ffffffffffffffffffffffffffffffffffffffff16036200027f576040517f08c379a000000000000000000000000000000000000000000000000000000000815260040162000276906200094e565b60405180910390fd5b620002b2838281518110620002995762000298620008d3565b5b602002602001015160026200046a60201b90919060201c565b508080600101915050620001e7565b505f5b81518110156200039e575f73ffffffffffffffffffffffffffffffffffffffff16828281518110620002fb57620002fa620008d3565b5b602002602001015173ffffffffffffffffffffffffffffffffffffffff16036200035c576040517f08c379a00000000000000000000000000000000000000000000000000000000081526004016200035390620009bc565b60405180910390fd5b6200038f828281518110620003765762000375620008d3565b5b602002602001015160046200046a60201b90919060201c565b508080600101915050620002c4565b5050505050620009dc565b5f805f9054906101000a900473ffffffffffffffffffffffffffffffffffffffff169050815f806101000a81548173ffffffffffffffffffffffffffffffffffffffff021916908373ffffffffffffffffffffffffffffffffffffffff1602179055508173ffffffffffffffffffffffffffffffffffffffff168173ffffffffffffffffffffffffffffffffffffffff167f8be0079c531659141344cd1fd0a4f28419497f9722a3daafe3b4186f6b6457e060405160405180910390a35050565b5f62000497835f018373ffffffffffffffffffffffffffffffffffffffff165f1b6200049f60201b60201c565b905092915050565b5f620004b283836200051060201b60201c565b6200050657825f0182908060018154018082558091505060019003905f5260205f20015f9091909190915055825f0180549050836001015f8481526020019081526020015f2081905550600190506200050a565b5f90505b92915050565b5f80836001015f8481526020019081526020015f20541415905092915050565b5f604051905090565b5f80fd5b5f80fd5b5f73ffffffffffffffffffffffffffffffffffffffff82169050919050565b5f6200056c8262000541565b9050919050565b6200057e8162000560565b811462000589575f80fd5b50565b5f815190506200059c8162000573565b92915050565b5f80fd5b5f601f19601f8301169050919050565b7f4e487b71000000000000000000000000000000000000000000000000000000005f52604160045260245ffd5b620005ee82620005a6565b810181811067ffffffffffffffff8211171562000610576200060f620005b6565b5b80604052505050565b5f6200062462000530565b9050620006328282620005e3565b919050565b5f67ffffffffffffffff821115620006545762000653620005b6565b5b602082029050602081019050919050565b5f80fd5b5f6200067f620006798462000637565b62000619565b90508083825260208201905060208402830185811115620006a557620006a462000665565b5b835b81811015620006d25780620006bd88826200058c565b845260208401935050602081019050620006a7565b5050509392505050565b5f82601f830112620006f357620006f2620005a2565b5b81516200070584826020860162000669565b91505092915050565b5f805f806080858703121562000729576200072862000539565b5b5f62000738878288016200058c565b94505060206200074b878288016200058c565b935050604085015167ffffffffffffffff8111156200076f576200076e6200053d565b5b6200077d87828801620006dc565b925050606085015167ffffffffffffffff811115620007a157620007a06200053d565b5b620007af87828801620006dc565b91505092959194509250565b620007c68162000560565b82525050565b5f602082019050620007e15f830184620007bb565b92915050565b5f82825260208201905092915050565b7f43726561746f7220616464726573732063616e6e6f74206265207a65726f2e005f82015250565b5f6200082d601f83620007e7565b91506200083a82620007f7565b602082019050919050565b5f6020820190508181035f8301526200085e816200081f565b9050919050565b7f44414f20616464726573732063616e6e6f74206265207a65726f2e00000000005f82015250565b5f6200089b601b83620007e7565b9150620008a88262000865565b602082019050919050565b5f6020820190508181035f830152620008cc816200088d565b9050919050565b7f4e487b71000000000000000000000000000000000000000000000000000000005f52603260045260245ffd5b7f546f6b656e20616464726573732063616e6e6f74206265207a65726f2e0000005f82015250565b5f62000936601d83620007e7565b9150620009438262000900565b602082019050919050565b5f6020820190508181035f830152620009678162000928565b9050919050565b7f46756e64657220616464726573732063616e6e6f74206265207a65726f2e00005f82015250565b5f620009a4601e83620007e7565b9150620009b1826200096e565b602082019050919050565b5f6020820190508181035f830152620009d58162000996565b9050919050565b611b0c80620009ea5f395ff3fe608060405234801561000f575f80fd5b5060043610610109575f3560e01c80637c70c0a3116100a0578063bf0c02811161006f578063bf0c0281146102a1578063d512c061146102bd578063d9f7b838146102d9578063e20698a1146102f5578063f2fde38b1461031357610109565b80637c70c0a3146102075780638346a3cc146102375780638da5cb5b14610253578063ab37f4861461027157610109565b80635f6d54b1116100dc5780635f6d54b11461019357806369c3ff98146101af578063715018a6146101cd5780637523e0fa146101d757610109565b80631c88705d1461010d5780632950d47f146101295780632dbf68a214610159578063363cb34d14610177575b5f80fd5b610127600480360381019061012291906111e1565b61032f565b005b610143600480360381019061013e919061123f565b6103ce565b6040516101509190611279565b60405180910390f35b610161610435565b60405161016e91906112a1565b60405180910390f35b610191600480360381019061018c91906111e1565b610445565b005b6101ad60048036038101906101a891906111e1565b610553565b005b6101b76105f2565b6040516101c49190611279565b60405180910390f35b6101d5610617565b005b6101f160048036038101906101ec91906111e1565b61062a565b6040516101fe91906112d4565b60405180910390f35b610221600480360381019061021c919061123f565b610646565b60405161022e9190611279565b60405180910390f35b610251600480360381019061024c91906112ed565b6106ad565b005b61025b6108fb565b6040516102689190611279565b60405180910390f35b61028b600480360381019061028691906111e1565b610922565b60405161029891906112d4565b60405180910390f35b6102bb60048036038101906102b691906111e1565b61093e565b005b6102d760048036038101906102d2919061133d565b6109f7565b005b6102f360048036038101906102ee91906111e1565b610bd9565b005b6102fd610ce7565b60405161030a91906112a1565b60405180910390f35b61032d600480360381019061032891906111e1565b610cf7565b005b610337610d7b565b61034081610922565b61037f576040517f08c379a0000000000000000000000000000000000000000000000000000000008152600401610376906113d5565b60405180910390fd5b610393816002610e0290919063ffffffff16565b507f3e4130008265a57fa3e4f3cc37bc1d691652b77b4407bd08ddea997b2eda4367816040516103c39190611279565b60405180910390a150565b5f6103d96004610e2f565b821061041a576040517f08c379a00000000000000000000000000000000000000000000000000000000081526004016104119061143d565b60405180910390fd5b61042e826004610e4290919063ffffffff16565b9050919050565b5f6104406002610e2f565b905090565b61044d610d7b565b5f73ffffffffffffffffffffffffffffffffffffffff168173ffffffffffffffffffffffffffffffffffffffff16036104bb576040517f08c379a00000000000000000000000000000000000000000000000000000000081526004016104b2906114a5565b60405180910390fd5b6104c481610922565b15610504576040517f08c379a00000000000000000000000000000000000000000000000000000000081526004016104fb9061150d565b60405180910390fd5b610518816002610e5990919063ffffffff16565b507f2645b1141d317aaace45484cb5db0f0d90c49cd11d6f05bb020bb45b191c4765816040516105489190611279565b60405180910390a150565b61055b610d7b565b6105648161062a565b6105a3576040517f08c379a000000000000000000000000000000000000000000000000000000000815260040161059a90611575565b60405180910390fd5b6105b7816004610e0290919063ffffffff16565b507f5f9eda18690c11c4f9d4f15411b22816f540afda366012f83583ffd79df79d77816040516105e79190611279565b60405180910390a150565b60065f9054906101000a900473ffffffffffffffffffffffffffffffffffffffff1681565b61061f610d7b565b6106285f610e86565b565b5f61063f826004610f4790919063ffffffff16565b9050919050565b5f6106516002610e2f565b8210610692576040517f08c379a00000000000000000000000000000000000000000000000000000000081526004016106899061143d565b60405180910390fd5b6106a6826002610e4290919063ffffffff16565b9050919050565b6106b5610f74565b60065f9054906101000a900473ffffffffffffffffffffffffffffffffffffffff1673ffffffffffffffffffffffffffffffffffffffff163373ffffffffffffffffffffffffffffffffffffffff1614610744576040517f08c379a000000000000000000000000000000000000000000000000000000000815260040161073b90611603565b60405180910390fd5b5f73ffffffffffffffffffffffffffffffffffffffff168273ffffffffffffffffffffffffffffffffffffffff16036107b2576040517f08c379a00000000000000000000000000000000000000000000000000000000081526004016107a990611691565b60405180910390fd5b5f81116107f4576040517f08c379a00000000000000000000000000000000000000000000000000000000081526004016107eb9061171f565b60405180910390fd5b5f8390508073ffffffffffffffffffffffffffffffffffffffff1663a9059cbb84846040518363ffffffff1660e01b815260040161083392919061173d565b6020604051808303815f875af115801561084f573d5f803e3d5ffd5b505050506040513d601f19601f82011682018060405250810190610873919061178e565b6108b2576040517f08c379a00000000000000000000000000000000000000000000000000000000081526004016108a990611803565b60405180910390fd5b7f182bd77262e849de4313f93eace2dcf5dd6891ad8483a019c58ef674ef28f0448484846040516108e593929190611821565b60405180910390a1506108f6610fba565b505050565b5f805f9054906101000a900473ffffffffffffffffffffffffffffffffffffffff16905090565b5f610937826002610f4790919063ffffffff16565b9050919050565b610946610d7b565b5f73ffffffffffffffffffffffffffffffffffffffff168173ffffffffffffffffffffffffffffffffffffffff16036109b4576040517f08c379a00000000000000000000000000000000000000000000000000000000081526004016109ab906118a0565b60405180910390fd5b8060065f6101000a81548173ffffffffffffffffffffffffffffffffffffffff021916908373ffffffffffffffffffffffffffffffffffffffff16021790555050565b6109ff610f74565b610a083361062a565b610a47576040517f08c379a0000000000000000000000000000000000000000000000000000000008152600401610a3e9061192e565b60405180910390fd5b610a5082610922565b610a8f576040517f08c379a0000000000000000000000000000000000000000000000000000000008152600401610a86906113d5565b60405180910390fd5b5f8111610ad1576040517f08c379a0000000000000000000000000000000000000000000000000000000008152600401610ac89061171f565b60405180910390fd5b5f8290508073ffffffffffffffffffffffffffffffffffffffff166323b872dd3330856040518463ffffffff1660e01b8152600401610b1293929190611821565b6020604051808303815f875af1158015610b2e573d5f803e3d5ffd5b505050506040513d601f19601f82011682018060405250810190610b52919061178e565b610b91576040517f08c379a0000000000000000000000000000000000000000000000000000000008152600401610b8890611803565b60405180910390fd5b7fcb9b7f38bc80f58c8b9fc24bc28a2364a4386149db3cf9ca060973fad2cc3773833384604051610bc493929190611821565b60405180910390a150610bd5610fba565b5050565b610be1610d7b565b5f73ffffffffffffffffffffffffffffffffffffffff168173ffffffffffffffffffffffffffffffffffffffff1603610c4f576040517f08c379a0000000000000000000000000000000000000000000000000000000008152600401610c4690611996565b60405180910390fd5b610c588161062a565b15610c98576040517f08c379a0000000000000000000000000000000000000000000000000000000008152600401610c8f906119fe565b60405180910390fd5b610cac816004610e5990919063ffffffff16565b507f8eccfd4d4eb5999db8c337267f1c4ab7b81fa1589b88b814ba9c7ac1e502306481604051610cdc9190611279565b60405180910390a150565b5f610cf26004610e2f565b905090565b610cff610d7b565b5f73ffffffffffffffffffffffffffffffffffffffff168173ffffffffffffffffffffffffffffffffffffffff1603610d6f575f6040517f1e4fbdf7000000000000000000000000000000000000000000000000000000008152600401610d669190611279565b60405180910390fd5b610d7881610e86565b50565b610d83610fc3565b73ffffffffffffffffffffffffffffffffffffffff16610da16108fb565b73ffffffffffffffffffffffffffffffffffffffff1614610e0057610dc4610fc3565b6040517f118cdaa7000000000000000000000000000000000000000000000000000000008152600401610df79190611279565b60405180910390fd5b565b5f610e27835f018373ffffffffffffffffffffffffffffffffffffffff165f1b610fca565b905092915050565b5f610e3b825f016110c6565b9050919050565b5f610e4f835f01836110d5565b5f1c905092915050565b5f610e7e835f018373ffffffffffffffffffffffffffffffffffffffff165f1b6110fc565b905092915050565b5f805f9054906101000a900473ffffffffffffffffffffffffffffffffffffffff169050815f806101000a81548173ffffffffffffffffffffffffffffffffffffffff021916908373ffffffffffffffffffffffffffffffffffffffff1602179055508173ffffffffffffffffffffffffffffffffffffffff168173ffffffffffffffffffffffffffffffffffffffff167f8be0079c531659141344cd1fd0a4f28419497f9722a3daafe3b4186f6b6457e060405160405180910390a35050565b5f610f6c835f018373ffffffffffffffffffffffffffffffffffffffff165f1b611163565b905092915050565b600260015403610fb0576040517f3ee5aeb500000000000000000000000000000000000000000000000000000000815260040160405180910390fd5b6002600181905550565b60018081905550565b5f33905090565b5f80836001015f8481526020019081526020015f205490505f81146110bb575f600182610ff79190611a49565b90505f6001865f018054905061100d9190611a49565b9050808214611073575f865f01828154811061102c5761102b611a7c565b5b905f5260205f200154905080875f01848154811061104d5761104c611a7c565b5b905f5260205f20018190555083876001015f8381526020019081526020015f2081905550505b855f0180548061108657611085611aa9565b5b600190038181905f5260205f20015f90559055856001015f8681526020019081526020015f205f9055600193505050506110c0565b5f9150505b92915050565b5f815f01805490509050919050565b5f825f0182815481106110eb576110ea611a7c565b5b905f5260205f200154905092915050565b5f6111078383611163565b61115957825f0182908060018154018082558091505060019003905f5260205f20015f9091909190915055825f0180549050836001015f8481526020019081526020015f20819055506001905061115d565b5f90505b92915050565b5f80836001015f8481526020019081526020015f20541415905092915050565b5f80fd5b5f73ffffffffffffffffffffffffffffffffffffffff82169050919050565b5f6111b082611187565b9050919050565b6111c0816111a6565b81146111ca575f80fd5b50565b5f813590506111db816111b7565b92915050565b5f602082840312156111f6576111f5611183565b5b5f611203848285016111cd565b91505092915050565b5f819050919050565b61121e8161120c565b8114611228575f80fd5b50565b5f8135905061123981611215565b92915050565b5f6020828403121561125457611253611183565b5b5f6112618482850161122b565b91505092915050565b611273816111a6565b82525050565b5f60208201905061128c5f83018461126a565b92915050565b61129b8161120c565b82525050565b5f6020820190506112b45f830184611292565b92915050565b5f8115159050919050565b6112ce816112ba565b82525050565b5f6020820190506112e75f8301846112c5565b92915050565b5f805f6060848603121561130457611303611183565b5b5f611311868287016111cd565b9350506020611322868287016111cd565b92505060406113338682870161122b565b9150509250925092565b5f806040838503121561135357611352611183565b5b5f611360858286016111cd565b92505060206113718582860161122b565b9150509250929050565b5f82825260208201905092915050565b7f546f6b656e206973206e6f742077686974656c69737465642e000000000000005f82015250565b5f6113bf60198361137b565b91506113ca8261138b565b602082019050919050565b5f6020820190508181035f8301526113ec816113b3565b9050919050565b7f496e646578206f7574206f6620626f756e64732e0000000000000000000000005f82015250565b5f61142760148361137b565b9150611432826113f3565b602082019050919050565b5f6020820190508181035f8301526114548161141b565b9050919050565b7f546f6b656e20616464726573732063616e6e6f74206265207a65726f2e0000005f82015250565b5f61148f601d8361137b565b915061149a8261145b565b602082019050919050565b5f6020820190508181035f8301526114bc81611483565b9050919050565b7f546f6b656e20616c72656164792077686974656c69737465642e0000000000005f82015250565b5f6114f7601a8361137b565b9150611502826114c3565b602082019050919050565b5f6020820190508181035f830152611524816114eb565b9050919050565b7f46756e646572206973206e6f742077686974656c69737465642e0000000000005f82015250565b5f61155f601a8361137b565b915061156a8261152b565b602082019050919050565b5f6020820190508181035f83015261158c81611553565b9050919050565b7f4f6e6c79207468652044414f20636f6e74726163742063616e2063616c6c20745f8201527f6869732066756e6374696f6e2e00000000000000000000000000000000000000602082015250565b5f6115ed602d8361137b565b91506115f882611593565b604082019050919050565b5f6020820190508181035f83015261161a816115e1565b9050919050565b7f526563697069656e7420616464726573732063616e6e6f74206265207a65726f5f8201527f2e00000000000000000000000000000000000000000000000000000000000000602082015250565b5f61167b60218361137b565b915061168682611621565b604082019050919050565b5f6020820190508181035f8301526116a88161166f565b9050919050565b7f416d6f756e74206d7573742062652067726561746572207468616e207a65726f5f8201527f2e00000000000000000000000000000000000000000000000000000000000000602082015250565b5f61170960218361137b565b9150611714826116af565b604082019050919050565b5f6020820190508181035f830152611736816116fd565b9050919050565b5f6040820190506117505f83018561126a565b61175d6020830184611292565b9392505050565b61176d816112ba565b8114611777575f80fd5b50565b5f8151905061178881611764565b92915050565b5f602082840312156117a3576117a2611183565b5b5f6117b08482850161177a565b91505092915050565b7f5472616e73666572206661696c65642e000000000000000000000000000000005f82015250565b5f6117ed60108361137b565b91506117f8826117b9565b602082019050919050565b5f6020820190508181035f83015261181a816117e1565b9050919050565b5f6060820190506118345f83018661126a565b611841602083018561126a565b61184e6040830184611292565b949350505050565b7f44414f20616464726573732063616e6e6f74206265207a65726f2e00000000005f82015250565b5f61188a601b8361137b565b915061189582611856565b602082019050919050565b5f6020820190508181035f8301526118b78161187e565b9050919050565b7f4f6e6c792077686974656c69737465642066756e646572732063616e206164645f8201527f2066756e64732e00000000000000000000000000000000000000000000000000602082015250565b5f61191860278361137b565b9150611923826118be565b604082019050919050565b5f6020820190508181035f8301526119458161190c565b9050919050565b7f46756e64657220616464726573732063616e6e6f74206265207a65726f2e00005f82015250565b5f611980601e8361137b565b915061198b8261194c565b602082019050919050565b5f6020820190508181035f8301526119ad81611974565b9050919050565b7f46756e64657220616c72656164792077686974656c69737465642e00000000005f82015250565b5f6119e8601b8361137b565b91506119f3826119b4565b602082019050919050565b5f6020820190508181035f830152611a15816119dc565b9050919050565b7f4e487b71000000000000000000000000000000000000000000000000000000005f52601160045260245ffd5b5f611a538261120c565b9150611a5e8361120c565b9250828203905081811115611a7657611a75611a1c565b5b92915050565b7f4e487b71000000000000000000000000000000000000000000000000000000005f52603260045260245ffd5b7f4e487b71000000000000000000000000000000000000000000000000000000005f52603160045260245ffdfea264697066735822122078a100a49f350b18086011aa6c6ed5023213e52fbbde6d33447db97600da1fbc64736f6c63430008160033a2646970667358221220ee1b1c6190a9110aab4e8356a993d46e5895dd0f2ccef7b211947e0ab71f0f8264736f6c63430008160033","linkReferences":{}},"methodIdentifiers":{"createContracts(string,string,string,string,uint256,uint256,bool,address[],address[])":"cdc5c5b2","owner()":"8da5cb5b","renounceOwnership()":"715018a6","transferOwnership(address)":"f2fde38b"},"id":31}