{"abi":[{"type":"constructor","inputs":[{"name":"_creator","type":"address","internalType":"address"},{"name":"_daoContractAddress","type":"address","internalType":"address"},{"name":"_initialWhitelistedTokens","type":"address[]","internalType":"address[]"},{"name":"_initialWhitelistedFunders","type":"address[]","internalType":"address[]"}],"stateMutability":"nonpayable"},{"type":"function","name":"addFund","inputs":[{"name":"_tokenAddress","type":"address","internalType":"address"},{"name":"_amount","type":"uint256","internalType":"uint256"}],"outputs":[],"stateMutability":"nonpayable"},{"type":"function","name":"addWhitelistedFunder","inputs":[{"name":"_funderAddress","type":"address","internalType":"address"}],"outputs":[],"stateMutability":"nonpayable"},{"type":"function","name":"addWhitelistedToken","inputs":[{"name":"_tokenAddress","type":"address","internalType":"address"}],"outputs":[],"stateMutability":"nonpayable"},{"type":"function","name":"daoContractAddress","inputs":[],"outputs":[{"name":"","type":"address","internalType":"address"}],"stateMutability":"view"},{"type":"function","name":"getWhitelistedFunderAtIndex","inputs":[{"name":"_index","type":"uint256","internalType":"uint256"}],"outputs":[{"name":"","type":"address","internalType":"address"}],"stateMutability":"view"},{"type":"function","name":"getWhitelistedFunderCount","inputs":[],"outputs":[{"name":"","type":"uint256","internalType":"uint256"}],"stateMutability":"view"},{"type":"function","name":"getWhitelistedTokenAtIndex","inputs":[{"name":"_index","type":"uint256","internalType":"uint256"}],"outputs":[{"name":"","type":"address","internalType":"address"}],"stateMutability":"view"},{"type":"function","name":"getWhitelistedTokenCount","inputs":[],"outputs":[{"name":"","type":"uint256","internalType":"uint256"}],"stateMutability":"view"},{"type":"function","name":"isWhitelistedFunder","inputs":[{"name":"_funderAddress","type":"address","internalType":"address"}],"outputs":[{"name":"","type":"bool","internalType":"bool"}],"stateMutability":"view"},{"type":"function","name":"isWhitelistedToken","inputs":[{"name":"_tokenAddress","type":"address","internalType":"address"}],"outputs":[{"name":"","type":"bool","internalType":"bool"}],"stateMutability":"view"},{"type":"function","name":"owner","inputs":[],"outputs":[{"name":"","type":"address","internalType":"address"}],"stateMutability":"view"},{"type":"function","name":"removeWhitelistedFunder","inputs":[{"name":"_funderAddress","type":"address","internalType":"address"}],"outputs":[],"stateMutability":"nonpayable"},{"type":"function","name":"removeWhitelistedToken","inputs":[{"name":"_tokenAddress","type":"address","internalType":"address"}],"outputs":[],"stateMutability":"nonpayable"},{"type":"function","name":"renounceOwnership","inputs":[],"outputs":[],"stateMutability":"nonpayable"},{"type":"function","name":"sendFund","inputs":[{"name":"_tokenAddress","type":"address","internalType":"address"},{"name":"_to","type":"address","internalType":"address"},{"name":"_amount","type":"uint256","internalType":"uint256"}],"outputs":[],"stateMutability":"nonpayable"},{"type":"function","name":"transferOwnership","inputs":[{"name":"newOwner","type":"address","internalType":"address"}],"outputs":[],"stateMutability":"nonpayable"},{"type":"function","name":"updateDaoContractAddress","inputs":[{"name":"_newDaoContractAddress","type":"address","internalType":"address"}],"outputs":[],"stateMutability":"nonpayable"},{"type":"event","name":"FundAdded","inputs":[{"name":"tokenAddress","type":"address","indexed":false,"internalType":"address"},{"name":"sender","type":"address","indexed":false,"internalType":"address"},{"name":"amount","type":"uint256","indexed":false,"internalType":"uint256"}],"anonymous":false},{"type":"event","name":"FundSent","inputs":[{"name":"tokenAddress","type":"address","indexed":false,"internalType":"address"},{"name":"to","type":"address","indexed":false,"internalType":"address"},{"name":"amount","type":"uint256","indexed":false,"internalType":"uint256"}],"anonymous":false},{"type":"event","name":"OwnershipTransferred","inputs":[{"name":"previousOwner","type":"address","indexed":true,"internalType":"address"},{"name":"newOwner","type":"address","indexed":true,"internalType":"address"}],"anonymous":false},{"type":"event","name":"WhitelistedFunderAdded","inputs":[{"name":"funderAddress","type":"address","indexed":false,"internalType":"address"}],"anonymous":false},{"type":"event","name":"WhitelistedFunderRemoved","inputs":[{"name":"funderAddress","type":"address","indexed":false,"internalType":"address"}],"anonymous":false},{"type":"event","name":"WhitelistedTokenAdded","inputs":[{"name":"tokenAddress","type":"address","indexed":false,"internalType":"address"}],"anonymous":false},{"type":"event","name":"WhitelistedTokenRemoved","inputs":[{"name":"tokenAddress","type":"address","indexed":false,"internalType":"address"}],"anonymous":false},{"type":"error","name":"OwnableInvalidOwner","inputs":[{"name":"owner","type":"address","internalType":"address"}]},{"type":"error","name":"OwnableUnauthorizedAccount","inputs":[{"name":"account","type":"address","internalType":"address"}]},{"type":"error","name":"ReentrancyGuardReentrantCall","inputs":[]}],"bytecode":{"object":"0x608060405234801562000010575f80fd5b50604051620024f6380380620024f683398181016040528101906200003691906200070e565b835f73ffffffffffffffffffffffffffffffffffffffff168173ffffffffffffffffffffffffffffffffffffffff1603620000aa575f6040517f1e4fbdf7000000000000000000000000000000000000000000000000000000008152600401620000a19190620007cc565b60405180910390fd5b620000bb81620003a960201b60201c565b50600180819055505f73ffffffffffffffffffffffffffffffffffffffff168473ffffffffffffffffffffffffffffffffffffffff160362000134576040517f08c379a00000000000000000000000000000000000000000000000000000000081526004016200012b9062000845565b60405180910390fd5b5f73ffffffffffffffffffffffffffffffffffffffff168373ffffffffffffffffffffffffffffffffffffffff1603620001a5576040517f08c379a00000000000000000000000000000000000000000000000000000000081526004016200019c90620008b3565b60405180910390fd5b8260065f6101000a81548173ffffffffffffffffffffffffffffffffffffffff021916908373ffffffffffffffffffffffffffffffffffffffff1602179055505f5b8251811015620002c1575f73ffffffffffffffffffffffffffffffffffffffff168382815181106200021e576200021d620008d3565b5b602002602001015173ffffffffffffffffffffffffffffffffffffffff16036200027f576040517f08c379a000000000000000000000000000000000000000000000000000000000815260040162000276906200094e565b60405180910390fd5b620002b2838281518110620002995762000298620008d3565b5b602002602001015160026200046a60201b90919060201c565b508080600101915050620001e7565b505f5b81518110156200039e575f73ffffffffffffffffffffffffffffffffffffffff16828281518110620002fb57620002fa620008d3565b5b602002602001015173ffffffffffffffffffffffffffffffffffffffff16036200035c576040517f08c379a00000000000000000000000000000000000000000000000000000000081526004016200035390620009bc565b60405180910390fd5b6200038f828281518110620003765762000375620008d3565b5b602002602001015160046200046a60201b90919060201c565b508080600101915050620002c4565b5050505050620009dc565b5f805f9054906101000a900473ffffffffffffffffffffffffffffffffffffffff169050815f806101000a81548173ffffffffffffffffffffffffffffffffffffffff021916908373ffffffffffffffffffffffffffffffffffffffff1602179055508173ffffffffffffffffffffffffffffffffffffffff168173ffffffffffffffffffffffffffffffffffffffff167f8be0079c531659141344cd1fd0a4f28419497f9722a3daafe3b4186f6b6457e060405160405180910390a35050565b5f62000497835f018373ffffffffffffffffffffffffffffffffffffffff165f1b6200049f60201b60201c565b905092915050565b5f620004b283836200051060201b60201c565b6200050657825f0182908060018154018082558091505060019003905f5260205f20015f9091909190915055825f0180549050836001015f8481526020019081526020015f2081905550600190506200050a565b5f90505b92915050565b5f80836001015f8481526020019081526020015f20541415905092915050565b5f604051905090565b5f80fd5b5f80fd5b5f73ffffffffffffffffffffffffffffffffffffffff82169050919050565b5f6200056c8262000541565b9050919050565b6200057e8162000560565b811462000589575f80fd5b50565b5f815190506200059c8162000573565b92915050565b5f80fd5b5f601f19601f8301169050919050565b7f4e487b71000000000000000000000000000000000000000000000000000000005f52604160045260245ffd5b620005ee82620005a6565b810181811067ffffffffffffffff8211171562000610576200060f620005b6565b5b80604052505050565b5f6200062462000530565b9050620006328282620005e3565b919050565b5f67ffffffffffffffff821115620006545762000653620005b6565b5b602082029050602081019050919050565b5f80fd5b5f6200067f620006798462000637565b62000619565b90508083825260208201905060208402830185811115620006a557620006a462000665565b5b835b81811015620006d25780620006bd88826200058c565b845260208401935050602081019050620006a7565b5050509392505050565b5f82601f830112620006f357620006f2620005a2565b5b81516200070584826020860162000669565b91505092915050565b5f805f806080858703121562000729576200072862000539565b5b5f62000738878288016200058c565b94505060206200074b878288016200058c565b935050604085015167ffffffffffffffff8111156200076f576200076e6200053d565b5b6200077d87828801620006dc565b925050606085015167ffffffffffffffff811115620007a157620007a06200053d565b5b620007af87828801620006dc565b91505092959194509250565b620007c68162000560565b82525050565b5f602082019050620007e15f830184620007bb565b92915050565b5f82825260208201905092915050565b7f43726561746f7220616464726573732063616e6e6f74206265207a65726f2e005f82015250565b5f6200082d601f83620007e7565b91506200083a82620007f7565b602082019050919050565b5f6020820190508181035f8301526200085e816200081f565b9050919050565b7f44414f20616464726573732063616e6e6f74206265207a65726f2e00000000005f82015250565b5f6200089b601b83620007e7565b9150620008a88262000865565b602082019050919050565b5f6020820190508181035f830152620008cc816200088d565b9050919050565b7f4e487b71000000000000000000000000000000000000000000000000000000005f52603260045260245ffd5b7f546f6b656e20616464726573732063616e6e6f74206265207a65726f2e0000005f82015250565b5f62000936601d83620007e7565b9150620009438262000900565b602082019050919050565b5f6020820190508181035f830152620009678162000928565b9050919050565b7f46756e64657220616464726573732063616e6e6f74206265207a65726f2e00005f82015250565b5f620009a4601e83620007e7565b9150620009b1826200096e565b602082019050919050565b5f6020820190508181035f830152620009d58162000996565b9050919050565b611b0c80620009ea5f395ff3fe608060405234801561000f575f80fd5b5060043610610109575f3560e01c80637c70c0a3116100a0578063bf0c02811161006f578063bf0c0281146102a1578063d512c061146102bd578063d9f7b838146102d9578063e20698a1146102f5578063f2fde38b1461031357610109565b80637c70c0a3146102075780638346a3cc146102375780638da5cb5b14610253578063ab37f4861461027157610109565b80635f6d54b1116100dc5780635f6d54b11461019357806369c3ff98146101af578063715018a6146101cd5780637523e0fa146101d757610109565b80631c88705d1461010d5780632950d47f146101295780632dbf68a214610159578063363cb34d14610177575b5f80fd5b610127600480360381019061012291906111e1565b61032f565b005b610143600480360381019061013e919061123f565b6103ce565b6040516101509190611279565b60405180910390f35b610161610435565b60405161016e91906112a1565b60405180910390f35b610191600480360381019061018c91906111e1565b610445565b005b6101ad60048036038101906101a891906111e1565b610553565b005b6101b76105f2565b6040516101c49190611279565b60405180910390f35b6101d5610617565b005b6101f160048036038101906101ec91906111e1565b61062a565b6040516101fe91906112d4565b60405180910390f35b610221600480360381019061021c919061123f565b610646565b60405161022e9190611279565b60405180910390f35b610251600480360381019061024c91906112ed565b6106ad565b005b61025b6108fb565b6040516102689190611279565b60405180910390f35b61028b600480360381019061028691906111e1565b610922565b60405161029891906112d4565b60405180910390f35b6102bb60048036038101906102b691906111e1565b61093e565b005b6102d760048036038101906102d2919061133d565b6109f7565b005b6102f360048036038101906102ee91906111e1565b610bd9565b005b6102fd610ce7565b60405161030a91906112a1565b60405180910390f35b61032d600480360381019061032891906111e1565b610cf7565b005b610337610d7b565b61034081610922565b61037f576040517f08c379a0000000000000000000000000000000000000000000000000000000008152600401610376906113d5565b60405180910390fd5b610393816002610e0290919063ffffffff16565b507f3e4130008265a57fa3e4f3cc37bc1d691652b77b4407bd08ddea997b2eda4367816040516103c39190611279565b60405180910390a150565b5f6103d96004610e2f565b821061041a576040517f08c379a00000000000000000000000000000000000000000000000000000000081526004016104119061143d565b60405180910390fd5b61042e826004610e4290919063ffffffff16565b9050919050565b5f6104406002610e2f565b905090565b61044d610d7b565b5f73ffffffffffffffffffffffffffffffffffffffff168173ffffffffffffffffffffffffffffffffffffffff16036104bb576040517f08c379a00000000000000000000000000000000000000000000000000000000081526004016104b2906114a5565b60405180910390fd5b6104c481610922565b15610504576040517f08c379a00000000000000000000000000000000000000000000000000000000081526004016104fb9061150d565b60405180910390fd5b610518816002610e5990919063ffffffff16565b507f2645b1141d317aaace45484cb5db0f0d90c49cd11d6f05bb020bb45b191c4765816040516105489190611279565b60405180910390a150565b61055b610d7b565b6105648161062a565b6105a3576040517f08c379a000000000000000000000000000000000000000000000000000000000815260040161059a90611575565b60405180910390fd5b6105b7816004610e0290919063ffffffff16565b507f5f9eda18690c11c4f9d4f15411b22816f540afda366012f83583ffd79df79d77816040516105e79190611279565b60405180910390a150565b60065f9054906101000a900473ffffffffffffffffffffffffffffffffffffffff1681565b61061f610d7b565b6106285f610e86565b565b5f61063f826004610f4790919063ffffffff16565b9050919050565b5f6106516002610e2f565b8210610692576040517f08c379a00000000000000000000000000000000000000000000000000000000081526004016106899061143d565b60405180910390fd5b6106a6826002610e4290919063ffffffff16565b9050919050565b6106b5610f74565b60065f9054906101000a900473ffffffffffffffffffffffffffffffffffffffff1673ffffffffffffffffffffffffffffffffffffffff163373ffffffffffffffffffffffffffffffffffffffff1614610744576040517f08c379a000000000000000000000000000000000000000000000000000000000815260040161073b90611603565b60405180910390fd5b5f73ffffffffffffffffffffffffffffffffffffffff168273ffffffffffffffffffffffffffffffffffffffff16036107b2576040517f08c379a00000000000000000000000000000000000000000000000000000000081526004016107a990611691565b60405180910390fd5b5f81116107f4576040517f08c379a00000000000000000000000000000000000000000000000000000000081526004016107eb9061171f565b60405180910390fd5b5f8390508073ffffffffffffffffffffffffffffffffffffffff1663a9059cbb84846040518363ffffffff1660e01b815260040161083392919061173d565b6020604051808303815f875af115801561084f573d5f803e3d5ffd5b505050506040513d601f19601f82011682018060405250810190610873919061178e565b6108b2576040517f08c379a00000000000000000000000000000000000000000000000000000000081526004016108a990611803565b60405180910390fd5b7f182bd77262e849de4313f93eace2dcf5dd6891ad8483a019c58ef674ef28f0448484846040516108e593929190611821565b60405180910390a1506108f6610fba565b505050565b5f805f9054906101000a900473ffffffffffffffffffffffffffffffffffffffff16905090565b5f610937826002610f4790919063ffffffff16565b9050919050565b610946610d7b565b5f73ffffffffffffffffffffffffffffffffffffffff168173ffffffffffffffffffffffffffffffffffffffff16036109b4576040517f08c379a00000000000000000000000000000000000000000000000000000000081526004016109ab906118a0565b60405180910390fd5b8060065f6101000a81548173ffffffffffffffffffffffffffffffffffffffff021916908373ffffffffffffffffffffffffffffffffffffffff16021790555050565b6109ff610f74565b610a083361062a565b610a47576040517f08c379a0000000000000000000000000000000000000000000000000000000008152600401610a3e9061192e565b60405180910390fd5b610a5082610922565b610a8f576040517f08c379a0000000000000000000000000000000000000000000000000000000008152600401610a86906113d5565b60405180910390fd5b5f8111610ad1576040517f08c379a0000000000000000000000000000000000000000000000000000000008152600401610ac89061171f565b60405180910390fd5b5f8290508073ffffffffffffffffffffffffffffffffffffffff166323b872dd3330856040518463ffffffff1660e01b8152600401610b1293929190611821565b6020604051808303815f875af1158015610b2e573d5f803e3d5ffd5b505050506040513d601f19601f82011682018060405250810190610b52919061178e565b610b91576040517f08c379a0000000000000000000000000000000000000000000000000000000008152600401610b8890611803565b60405180910390fd5b7fcb9b7f38bc80f58c8b9fc24bc28a2364a4386149db3cf9ca060973fad2cc3773833384604051610bc493929190611821565b60405180910390a150610bd5610fba565b5050565b610be1610d7b565b5f73ffffffffffffffffffffffffffffffffffffffff168173ffffffffffffffffffffffffffffffffffffffff1603610c4f576040517f08c379a0000000000000000000000000000000000000000000000000000000008152600401610c4690611996565b60405180910390fd5b610c588161062a565b15610c98576040517f08c379a0000000000000000000000000000000000000000000000000000000008152600401610c8f906119fe565b60405180910390fd5b610cac816004610e5990919063ffffffff16565b507f8eccfd4d4eb5999db8c337267f1c4ab7b81fa1589b88b814ba9c7ac1e502306481604051610cdc9190611279565b60405180910390a150565b5f610cf26004610e2f565b905090565b610cff610d7b565b5f73ffffffffffffffffffffffffffffffffffffffff168173ffffffffffffffffffffffffffffffffffffffff1603610d6f575f6040517f1e4fbdf7000000000000000000000000000000000000000000000000000000008152600401610d669190611279565b60405180910390fd5b610d7881610e86565b50565b610d83610fc3565b73ffffffffffffffffffffffffffffffffffffffff16610da16108fb565b73ffffffffffffffffffffffffffffffffffffffff1614610e0057610dc4610fc3565b6040517f118cdaa7000000000000000000000000000000000000000000000000000000008152600401610df79190611279565b60405180910390fd5b565b5f610e27835f018373ffffffffffffffffffffffffffffffffffffffff165f1b610fca565b905092915050565b5f610e3b825f016110c6565b9050919050565b5f610e4f835f01836110d5565b5f1c905092915050565b5f610e7e835f018373ffffffffffffffffffffffffffffffffffffffff165f1b6110fc565b905092915050565b5f805f9054906101000a900473ffffffffffffffffffffffffffffffffffffffff169050815f806101000a81548173ffffffffffffffffffffffffffffffffffffffff021916908373ffffffffffffffffffffffffffffffffffffffff1602179055508173ffffffffffffffffffffffffffffffffffffffff168173ffffffffffffffffffffffffffffffffffffffff167f8be0079c531659141344cd1fd0a4f28419497f9722a3daafe3b4186f6b6457e060405160405180910390a35050565b5f610f6c835f018373ffffffffffffffffffffffffffffffffffffffff165f1b611163565b905092915050565b600260015403610fb0576040517f3ee5aeb500000000000000000000000000000000000000000000000000000000815260040160405180910390fd5b6002600181905550565b60018081905550565b5f33905090565b5f80836001015f8481526020019081526020015f205490505f81146110bb575f600182610ff79190611a49565b90505f6001865f018054905061100d9190611a49565b9050808214611073575f865f01828154811061102c5761102b611a7c565b5b905f5260205f200154905080875f01848154811061104d5761104c611a7c565b5b905f5260205f20018190555083876001015f8381526020019081526020015f2081905550505b855f0180548061108657611085611aa9565b5b600190038181905f5260205f20015f90559055856001015f8681526020019081526020015f205f9055600193505050506110c0565b5f9150505b92915050565b5f815f01805490509050919050565b5f825f0182815481106110eb576110ea611a7c565b5b905f5260205f200154905092915050565b5f6111078383611163565b61115957825f0182908060018154018082558091505060019003905f5260205f20015f9091909190915055825f0180549050836001015f8481526020019081526020015f20819055506001905061115d565b5f90505b92915050565b5f80836001015f8481526020019081526020015f20541415905092915050565b5f80fd5b5f73ffffffffffffffffffffffffffffffffffffffff82169050919050565b5f6111b082611187565b9050919050565b6111c0816111a6565b81146111ca575f80fd5b50565b5f813590506111db816111b7565b92915050565b5f602082840312156111f6576111f5611183565b5b5f611203848285016111cd565b91505092915050565b5f819050919050565b61121e8161120c565b8114611228575f80fd5b50565b5f8135905061123981611215565b92915050565b5f6020828403121561125457611253611183565b5b5f6112618482850161122b565b91505092915050565b611273816111a6565b82525050565b5f60208201905061128c5f83018461126a565b92915050565b61129b8161120c565b82525050565b5f6020820190506112b45f830184611292565b92915050565b5f8115159050919050565b6112ce816112ba565b82525050565b5f6020820190506112e75f8301846112c5565b92915050565b5f805f6060848603121561130457611303611183565b5b5f611311868287016111cd565b9350506020611322868287016111cd565b92505060406113338682870161122b565b9150509250925092565b5f806040838503121561135357611352611183565b5b5f611360858286016111cd565b92505060206113718582860161122b565b9150509250929050565b5f82825260208201905092915050565b7f546f6b656e206973206e6f742077686974656c69737465642e000000000000005f82015250565b5f6113bf60198361137b565b91506113ca8261138b565b602082019050919050565b5f6020820190508181035f8301526113ec816113b3565b9050919050565b7f496e646578206f7574206f6620626f756e64732e0000000000000000000000005f82015250565b5f61142760148361137b565b9150611432826113f3565b602082019050919050565b5f6020820190508181035f8301526114548161141b565b9050919050565b7f546f6b656e20616464726573732063616e6e6f74206265207a65726f2e0000005f82015250565b5f61148f601d8361137b565b915061149a8261145b565b602082019050919050565b5f6020820190508181035f8301526114bc81611483565b9050919050565b7f546f6b656e20616c72656164792077686974656c69737465642e0000000000005f82015250565b5f6114f7601a8361137b565b9150611502826114c3565b602082019050919050565b5f6020820190508181035f830152611524816114eb565b9050919050565b7f46756e646572206973206e6f742077686974656c69737465642e0000000000005f82015250565b5f61155f601a8361137b565b915061156a8261152b565b602082019050919050565b5f6020820190508181035f83015261158c81611553565b9050919050565b7f4f6e6c79207468652044414f20636f6e74726163742063616e2063616c6c20745f8201527f6869732066756e6374696f6e2e00000000000000000000000000000000000000602082015250565b5f6115ed602d8361137b565b91506115f882611593565b604082019050919050565b5f6020820190508181035f83015261161a816115e1565b9050919050565b7f526563697069656e7420616464726573732063616e6e6f74206265207a65726f5f8201527f2e00000000000000000000000000000000000000000000000000000000000000602082015250565b5f61167b60218361137b565b915061168682611621565b604082019050919050565b5f6020820190508181035f8301526116a88161166f565b9050919050565b7f416d6f756e74206d7573742062652067726561746572207468616e207a65726f5f8201527f2e00000000000000000000000000000000000000000000000000000000000000602082015250565b5f61170960218361137b565b9150611714826116af565b604082019050919050565b5f6020820190508181035f830152611736816116fd565b9050919050565b5f6040820190506117505f83018561126a565b61175d6020830184611292565b9392505050565b61176d816112ba565b8114611777575f80fd5b50565b5f8151905061178881611764565b92915050565b5f602082840312156117a3576117a2611183565b5b5f6117b08482850161177a565b91505092915050565b7f5472616e73666572206661696c65642e000000000000000000000000000000005f82015250565b5f6117ed60108361137b565b91506117f8826117b9565b602082019050919050565b5f6020820190508181035f83015261181a816117e1565b9050919050565b5f6060820190506118345f83018661126a565b611841602083018561126a565b61184e6040830184611292565b949350505050565b7f44414f20616464726573732063616e6e6f74206265207a65726f2e00000000005f82015250565b5f61188a601b8361137b565b915061189582611856565b602082019050919050565b5f6020820190508181035f8301526118b78161187e565b9050919050565b7f4f6e6c792077686974656c69737465642066756e646572732063616e206164645f8201527f2066756e64732e00000000000000000000000000000000000000000000000000602082015250565b5f61191860278361137b565b9150611923826118be565b604082019050919050565b5f6020820190508181035f8301526119458161190c565b9050919050565b7f46756e64657220616464726573732063616e6e6f74206265207a65726f2e00005f82015250565b5f611980601e8361137b565b915061198b8261194c565b602082019050919050565b5f6020820190508181035f8301526119ad81611974565b9050919050565b7f46756e64657220616c72656164792077686974656c69737465642e00000000005f82015250565b5f6119e8601b8361137b565b91506119f3826119b4565b602082019050919050565b5f6020820190508181035f830152611a15816119dc565b9050919050565b7f4e487b71000000000000000000000000000000000000000000000000000000005f52601160045260245ffd5b5f611a538261120c565b9150611a5e8361120c565b9250828203905081811115611a7657611a75611a1c565b5b92915050565b7f4e487b71000000000000000000000000000000000000000000000000000000005f52603260045260245ffd5b7f4e487b71000000000000000000000000000000000000000000000000000000005f52603160045260245ffdfea264697066735822122078a100a49f350b18086011aa6c6ed5023213e52fbbde6d33447db97600da1fbc64736f6c63430008160033","linkReferences":{}},"methodIdentifiers":{"addFund(address,uint256)":"d512c061","addWhitelistedFunder(address)":"d9f7b838","addWhitelistedToken(address)":"363cb34d","daoContractAddress()":"69c3ff98","getWhitelistedFunderAtIndex(uint256)":"2950d47f","getWhitelistedFunderCount()":"e20698a1","getWhitelistedTokenAtIndex(uint256)":"7c70c0a3","getWhitelistedTokenCount()":"2dbf68a2","isWhitelistedFunder(address)":"7523e0fa","isWhitelistedToken(address)":"ab37f486","owner()":"8da5cb5b","removeWhitelistedFunder(address)":"5f6d54b1","removeWhitelistedToken(address)":"1c88705d","renounceOwnership()":"715018a6","sendFund(address,address,uint256)":"8346a3cc","transferOwnership(address)":"f2fde38b","updateDaoContractAddress(address)":"bf0c0281"},"id":33}