{"abi":[{"type":"constructor","inputs":[{"name":"_daoAddress","type":"address","internalType":"address"},{"name":"_startDate","type":"uint256","internalType":"uint256"},{"name":"_endDate","type":"uint256","internalType":"uint256"},{"name":"_fixedRewardPercentage","type":"uint256","internalType":"uint256"}],"stateMutability":"nonpayable"},{"type":"function","name":"addWhitelistedAppContracts","inputs":[{"name":"_appId","type":"uint256","internalType":"uint256"},{"name":"_contracts","type":"address[]","internalType":"address[]"}],"outputs":[],"stateMutability":"nonpayable"},{"type":"function","name":"beneficiaryApp","inputs":[{"name":"","type":"uint256","internalType":"uint256"}],"outputs":[{"name":"","type":"address","internalType":"address"}],"stateMutability":"view"},{"type":"function","name":"daoAddress","inputs":[],"outputs":[{"name":"","type":"address","internalType":"address"}],"stateMutability":"view"},{"type":"function","name":"endDate","inputs":[],"outputs":[{"name":"","type":"uint256","internalType":"uint256"}],"stateMutability":"view"},{"type":"function","name":"fixedRewardPercentage","inputs":[],"outputs":[{"name":"","type":"uint256","internalType":"uint256"}],"stateMutability":"view"},{"type":"function","name":"isContractWhitelisted","inputs":[{"name":"_appId","type":"uint256","internalType":"uint256"},{"name":"_contractAddress","type":"address","internalType":"address"}],"outputs":[{"name":"","type":"bool","internalType":"bool"}],"stateMutability":"view"},{"type":"function","name":"owner","inputs":[],"outputs":[{"name":"","type":"address","internalType":"address"}],"stateMutability":"view"},{"type":"function","name":"removeWhitelistedApp","inputs":[{"name":"_appId","type":"uint256","internalType":"uint256"}],"outputs":[],"stateMutability":"nonpayable"},{"type":"function","name":"removeWhitelistedAppContract","inputs":[{"name":"_appId","type":"uint256","internalType":"uint256"},{"name":"_contractAddress","type":"address","internalType":"address"}],"outputs":[],"stateMutability":"nonpayable"},{"type":"function","name":"renounceOwnership","inputs":[],"outputs":[],"stateMutability":"nonpayable"},{"type":"function","name":"rewardRules","inputs":[{"name":"","type":"uint256","internalType":"uint256"}],"outputs":[{"name":"amount","type":"uint256","internalType":"uint256"},{"name":"rewardPercentage","type":"uint256","internalType":"uint256"}],"stateMutability":"view"},{"type":"function","name":"setBeneficiaryApp","inputs":[{"name":"_appId","type":"uint256","internalType":"uint256"},{"name":"_beneficiary","type":"address","internalType":"address"}],"outputs":[],"stateMutability":"nonpayable"},{"type":"function","name":"startDate","inputs":[],"outputs":[{"name":"","type":"uint256","internalType":"uint256"}],"stateMutability":"view"},{"type":"function","name":"transferOwnership","inputs":[{"name":"newOwner","type":"address","internalType":"address"}],"outputs":[],"stateMutability":"nonpayable"},{"type":"function","name":"updateDaoAddress","inputs":[{"name":"_newDaoAddress","type":"address","internalType":"address"}],"outputs":[],"stateMutability":"nonpayable"},{"type":"function","name":"updateProgramDates","inputs":[{"name":"_newStartDate","type":"uint256","internalType":"uint256"},{"name":"_newEndDate","type":"uint256","internalType":"uint256"}],"outputs":[],"stateMutability":"nonpayable"},{"type":"function","name":"updateRules","inputs":[{"name":"_newFixedRewardPercentage","type":"uint256","internalType":"uint256"},{"name":"_newRewardRules","type":"tuple[]","internalType":"struct Structs.Rule[]","components":[{"name":"amount","type":"uint256","internalType":"uint256"},{"name":"rewardPercentage","type":"uint256","internalType":"uint256"}]}],"outputs":[],"stateMutability":"nonpayable"},{"type":"function","name":"whitelistedAppContracts","inputs":[{"name":"","type":"uint256","internalType":"uint256"},{"name":"","type":"uint256","internalType":"uint256"}],"outputs":[{"name":"","type":"address","internalType":"address"}],"stateMutability":"view"},{"type":"event","name":"OwnershipTransferred","inputs":[{"name":"previousOwner","type":"address","indexed":true,"internalType":"address"},{"name":"newOwner","type":"address","indexed":true,"internalType":"address"}],"anonymous":false},{"type":"event","name":"RulesUpdated","inputs":[{"name":"fixedRewardPercentage","type":"uint256","indexed":false,"internalType":"uint256"}],"anonymous":false},{"type":"event","name":"WhitelistedAppContractRemoved","inputs":[{"name":"appId","type":"uint256","indexed":false,"internalType":"uint256"},{"name":"contractAddress","type":"address","indexed":false,"internalType":"address"}],"anonymous":false},{"type":"event","name":"WhitelistedAppContractsAdded","inputs":[{"name":"appId","type":"uint256","indexed":false,"internalType":"uint256"},{"name":"contracts","type":"address[]","indexed":false,"internalType":"address[]"}],"anonymous":false},{"type":"event","name":"WhitelistedAppRemoved","inputs":[{"name":"appId","type":"uint256","indexed":false,"internalType":"uint256"}],"anonymous":false},{"type":"error","name":"OwnableInvalidOwner","inputs":[{"name":"owner","type":"address","internalType":"address"}]},{"type":"error","name":"OwnableUnauthorizedAccount","inputs":[{"name":"account","type":"address","internalType":"address"}]}],"bytecode":{"object":"0x608060405234801562000010575f80fd5b506040516200202c3803806200202c83398181016040528101906200003691906200032f565b335f73ffffffffffffffffffffffffffffffffffffffff168173ffffffffffffffffffffffffffffffffffffffff1603620000aa575f6040517f1e4fbdf7000000000000000000000000000000000000000000000000000000008152600401620000a19190620003af565b60405180910390fd5b620000bb81620001d160201b60201c565b505f73ffffffffffffffffffffffffffffffffffffffff168473ffffffffffffffffffffffffffffffffffffffff16036200012d576040517f08c379a0000000000000000000000000000000000000000000000000000000008152600401620001249062000428565b60405180910390fd5b81831062000172576040517f08c379a00000000000000000000000000000000000000000000000000000000081526004016200016990620004bc565b60405180910390fd5b8360015f6101000a81548173ffffffffffffffffffffffffffffffffffffffff021916908373ffffffffffffffffffffffffffffffffffffffff16021790555082600281905550816003819055508060048190555050505050620004dc565b5f805f9054906101000a900473ffffffffffffffffffffffffffffffffffffffff169050815f806101000a81548173ffffffffffffffffffffffffffffffffffffffff021916908373ffffffffffffffffffffffffffffffffffffffff1602179055508173ffffffffffffffffffffffffffffffffffffffff168173ffffffffffffffffffffffffffffffffffffffff167f8be0079c531659141344cd1fd0a4f28419497f9722a3daafe3b4186f6b6457e060405160405180910390a35050565b5f80fd5b5f73ffffffffffffffffffffffffffffffffffffffff82169050919050565b5f620002c18262000296565b9050919050565b620002d381620002b5565b8114620002de575f80fd5b50565b5f81519050620002f181620002c8565b92915050565b5f819050919050565b6200030b81620002f7565b811462000316575f80fd5b50565b5f81519050620003298162000300565b92915050565b5f805f80608085870312156200034a576200034962000292565b5b5f6200035987828801620002e1565b94505060206200036c8782880162000319565b93505060406200037f8782880162000319565b9250506060620003928782880162000319565b91505092959194509250565b620003a981620002b5565b82525050565b5f602082019050620003c45f8301846200039e565b92915050565b5f82825260208201905092915050565b7f44414f20616464726573732063616e6e6f74206265207a65726f2e00000000005f82015250565b5f62000410601b83620003ca565b91506200041d82620003da565b602082019050919050565b5f6020820190508181035f830152620004418162000402565b9050919050565b7f53746172742064617465206d757374206265206265666f726520656e642064615f8201527f74652e0000000000000000000000000000000000000000000000000000000000602082015250565b5f620004a4602383620003ca565b9150620004b18262000448565b604082019050919050565b5f6020820190508181035f830152620004d58162000496565b9050919050565b611b4280620004ea5f395ff3fe608060405234801561000f575f80fd5b5060043610610114575f3560e01c8063715018a6116100a0578063dee96cf71161006f578063dee96cf7146102b9578063f06ea95f146102d5578063f2fde38b14610305578063fafaf00e14610321578063fdfbe5291461033d57610114565b8063715018a6146102435780638da5cb5b1461024d578063a2751e091461026b578063c24a0f8b1461029b57610114565b80631870ac05116100e75780631870ac051461019f5780632131c68c146101cf5780632e2ecae3146101ed57806353caba18146102095780636030b14a1461022757610114565b8063013b490c14610118578063025eb326146101345780630b97bc86146101655780630eefa35d14610183575b5f80fd5b610132600480360381019061012d9190611102565b610359565b005b61014e60048036038101906101499190611160565b610412565b60405161015c92919061119a565b60405180910390f35b61016d610441565b60405161017a91906111c1565b60405180910390f35b61019d60048036038101906101989190611160565b610447565b005b6101b960048036038101906101b491906111da565b61052c565b6040516101c69190611227565b60405180910390f35b6101d7610574565b6040516101e49190611227565b60405180910390f35b61020760048036038101906102029190611390565b610599565b005b6102116107d2565b60405161021e91906111c1565b60405180910390f35b610241600480360381019061023c91906111da565b6107d8565b005b61024b610834565b005b610255610847565b6040516102629190611227565b60405180910390f35b610285600480360381019061028091906113ea565b61086e565b6040516102929190611442565b60405180910390f35b6102a3610981565b6040516102b091906111c1565b60405180910390f35b6102d360048036038101906102ce919061156c565b610987565b005b6102ef60048036038101906102ea9190611160565b610a4e565b6040516102fc9190611227565b60405180910390f35b61031f600480360381019061031a9190611102565b610a7e565b005b61033b600480360381019061033691906113ea565b610b02565b005b610357600480360381019061035291906113ea565b610bcb565b005b610361610eca565b5f73ffffffffffffffffffffffffffffffffffffffff168173ffffffffffffffffffffffffffffffffffffffff16036103cf576040517f08c379a00000000000000000000000000000000000000000000000000000000081526004016103c690611620565b60405180910390fd5b8060015f6101000a81548173ffffffffffffffffffffffffffffffffffffffff021916908373ffffffffffffffffffffffffffffffffffffffff16021790555050565b60058181548110610421575f80fd5b905f5260205f2090600202015f91509050805f0154908060010154905082565b60025481565b60015f9054906101000a900473ffffffffffffffffffffffffffffffffffffffff1673ffffffffffffffffffffffffffffffffffffffff163373ffffffffffffffffffffffffffffffffffffffff16146104d6576040517f08c379a00000000000000000000000000000000000000000000000000000000081526004016104cd906116ae565b60405180910390fd5b60065f8281526020019081526020015f205f6104f29190611019565b7f48ede8d8812d54b1bc21c36094d9227588f65474cab565f38e74ef02c25017248160405161052191906111c1565b60405180910390a150565b6006602052815f5260405f208181548110610545575f80fd5b905f5260205f20015f915091509054906101000a900473ffffffffffffffffffffffffffffffffffffffff1681565b60015f9054906101000a900473ffffffffffffffffffffffffffffffffffffffff1681565b60015f9054906101000a900473ffffffffffffffffffffffffffffffffffffffff1673ffffffffffffffffffffffffffffffffffffffff163373ffffffffffffffffffffffffffffffffffffffff1614610628576040517f08c379a000000000000000000000000000000000000000000000000000000000815260040161061f906116ae565b60405180910390fd5b5f81511161066b576040517f08c379a000000000000000000000000000000000000000000000000000000000815260040161066290611716565b60405180910390fd5b5f5b8151811015610794575f73ffffffffffffffffffffffffffffffffffffffff168282815181106106a05761069f611734565b5b602002602001015173ffffffffffffffffffffffffffffffffffffffff16036106fe576040517f08c379a00000000000000000000000000000000000000000000000000000000081526004016106f5906117ab565b60405180910390fd5b60065f8481526020019081526020015f2082828151811061072257610721611734565b5b6020026020010151908060018154018082558091505060019003905f5260205f20015f9091909190916101000a81548173ffffffffffffffffffffffffffffffffffffffff021916908373ffffffffffffffffffffffffffffffffffffffff160217905550808060010191505061066d565b507fdd22ea14dfc6450cc4c856d3fb119811ca4a3d4442940b5607ca580766a9869282826040516107c6929190611880565b60405180910390a15050565b60045481565b6107e0610eca565b808210610822576040517f08c379a00000000000000000000000000000000000000000000000000000000081526004016108199061191e565b60405180910390fd5b81600281905550806003819055505050565b61083c610eca565b6108455f610f51565b565b5f805f9054906101000a900473ffffffffffffffffffffffffffffffffffffffff16905090565b5f8060065f8581526020019081526020015f208054806020026020016040519081016040528092919081815260200182805480156108fe57602002820191905f5260205f20905b815f9054906101000a900473ffffffffffffffffffffffffffffffffffffffff1673ffffffffffffffffffffffffffffffffffffffff16815260200190600101908083116108b5575b505050505090505f5b8151811015610975578373ffffffffffffffffffffffffffffffffffffffff1682828151811061093a57610939611734565b5b602002602001015173ffffffffffffffffffffffffffffffffffffffff16036109685760019250505061097b565b8080600101915050610907565b505f9150505b92915050565b60035481565b61098f610eca565b8160048190555060055f6109a39190611037565b5f5b8151811015610a125760058282815181106109c3576109c2611734565b5b6020026020010151908060018154018082558091505060019003905f5260205f2090600202015f909190919091505f820151815f015560208201518160010155505080806001019150506109a5565b507f2676ac7540bcc639778bcd5737a2c46714b3e8f360883667e371c16123a206b482604051610a4291906111c1565b60405180910390a15050565b6007602052805f5260405f205f915054906101000a900473ffffffffffffffffffffffffffffffffffffffff1681565b610a86610eca565b5f73ffffffffffffffffffffffffffffffffffffffff168173ffffffffffffffffffffffffffffffffffffffff1603610af6575f6040517f1e4fbdf7000000000000000000000000000000000000000000000000000000008152600401610aed9190611227565b60405180910390fd5b610aff81610f51565b50565b610b0a610eca565b5f73ffffffffffffffffffffffffffffffffffffffff168173ffffffffffffffffffffffffffffffffffffffff1603610b78576040517f08c379a0000000000000000000000000000000000000000000000000000000008152600401610b6f906119ac565b60405180910390fd5b8060075f8481526020019081526020015f205f6101000a81548173ffffffffffffffffffffffffffffffffffffffff021916908373ffffffffffffffffffffffffffffffffffffffff1602179055505050565b60015f9054906101000a900473ffffffffffffffffffffffffffffffffffffffff1673ffffffffffffffffffffffffffffffffffffffff163373ffffffffffffffffffffffffffffffffffffffff1614610c5a576040517f08c379a0000000000000000000000000000000000000000000000000000000008152600401610c51906116ae565b60405180910390fd5b5f73ffffffffffffffffffffffffffffffffffffffff168173ffffffffffffffffffffffffffffffffffffffff1603610cc8576040517f08c379a0000000000000000000000000000000000000000000000000000000008152600401610cbf906117ab565b60405180910390fd5b5f60065f8481526020019081526020015f2090505f5b8180549050811015610e8a578273ffffffffffffffffffffffffffffffffffffffff16828281548110610d1457610d13611734565b5b905f5260205f20015f9054906101000a900473ffffffffffffffffffffffffffffffffffffffff1673ffffffffffffffffffffffffffffffffffffffff1603610e7d578160018380549050610d6991906119f7565b81548110610d7a57610d79611734565b5b905f5260205f20015f9054906101000a900473ffffffffffffffffffffffffffffffffffffffff16828281548110610db557610db4611734565b5b905f5260205f20015f6101000a81548173ffffffffffffffffffffffffffffffffffffffff021916908373ffffffffffffffffffffffffffffffffffffffff16021790555081805480610e0b57610e0a611a2a565b5b600190038181905f5260205f20015f6101000a81549073ffffffffffffffffffffffffffffffffffffffff021916905590557f8b27b30caef8a4075cec0531bb3395be9bf80645ff2b5766e862ed6a9556809f8484604051610e6e929190611a57565b60405180910390a15050610ec6565b8080600101915050610cde565b506040517f08c379a0000000000000000000000000000000000000000000000000000000008152600401610ebd90611aee565b60405180910390fd5b5050565b610ed2611012565b73ffffffffffffffffffffffffffffffffffffffff16610ef0610847565b73ffffffffffffffffffffffffffffffffffffffff1614610f4f57610f13611012565b6040517f118cdaa7000000000000000000000000000000000000000000000000000000008152600401610f469190611227565b60405180910390fd5b565b5f805f9054906101000a900473ffffffffffffffffffffffffffffffffffffffff169050815f806101000a81548173ffffffffffffffffffffffffffffffffffffffff021916908373ffffffffffffffffffffffffffffffffffffffff1602179055508173ffffffffffffffffffffffffffffffffffffffff168173ffffffffffffffffffffffffffffffffffffffff167f8be0079c531659141344cd1fd0a4f28419497f9722a3daafe3b4186f6b6457e060405160405180910390a35050565b5f33905090565b5080545f8255905f5260205f20908101906110349190611058565b50565b5080545f8255600202905f5260205f20908101906110559190611073565b50565b5b8082111561106f575f815f905550600101611059565b5090565b5b80821115611093575f8082015f9055600182015f905550600201611074565b5090565b5f604051905090565b5f80fd5b5f80fd5b5f73ffffffffffffffffffffffffffffffffffffffff82169050919050565b5f6110d1826110a8565b9050919050565b6110e1816110c7565b81146110eb575f80fd5b50565b5f813590506110fc816110d8565b92915050565b5f60208284031215611117576111166110a0565b5b5f611124848285016110ee565b91505092915050565b5f819050919050565b61113f8161112d565b8114611149575f80fd5b50565b5f8135905061115a81611136565b92915050565b5f60208284031215611175576111746110a0565b5b5f6111828482850161114c565b91505092915050565b6111948161112d565b82525050565b5f6040820190506111ad5f83018561118b565b6111ba602083018461118b565b9392505050565b5f6020820190506111d45f83018461118b565b92915050565b5f80604083850312156111f0576111ef6110a0565b5b5f6111fd8582860161114c565b925050602061120e8582860161114c565b9150509250929050565b611221816110c7565b82525050565b5f60208201905061123a5f830184611218565b92915050565b5f80fd5b5f601f19601f8301169050919050565b7f4e487b71000000000000000000000000000000000000000000000000000000005f52604160045260245ffd5b61128a82611244565b810181811067ffffffffffffffff821117156112a9576112a8611254565b5b80604052505050565b5f6112bb611097565b90506112c78282611281565b919050565b5f67ffffffffffffffff8211156112e6576112e5611254565b5b602082029050602081019050919050565b5f80fd5b5f61130d611308846112cc565b6112b2565b905080838252602082019050602084028301858111156113305761132f6112f7565b5b835b81811015611359578061134588826110ee565b845260208401935050602081019050611332565b5050509392505050565b5f82601f83011261137757611376611240565b5b81356113878482602086016112fb565b91505092915050565b5f80604083850312156113a6576113a56110a0565b5b5f6113b38582860161114c565b925050602083013567ffffffffffffffff8111156113d4576113d36110a4565b5b6113e085828601611363565b9150509250929050565b5f8060408385031215611400576113ff6110a0565b5b5f61140d8582860161114c565b925050602061141e858286016110ee565b9150509250929050565b5f8115159050919050565b61143c81611428565b82525050565b5f6020820190506114555f830184611433565b92915050565b5f67ffffffffffffffff82111561147557611474611254565b5b602082029050602081019050919050565b5f80fd5b5f6040828403121561149f5761149e611486565b5b6114a960406112b2565b90505f6114b88482850161114c565b5f8301525060206114cb8482850161114c565b60208301525092915050565b5f6114e96114e48461145b565b6112b2565b9050808382526020820190506040840283018581111561150c5761150b6112f7565b5b835b818110156115355780611521888261148a565b84526020840193505060408101905061150e565b5050509392505050565b5f82601f83011261155357611552611240565b5b81356115638482602086016114d7565b91505092915050565b5f8060408385031215611582576115816110a0565b5b5f61158f8582860161114c565b925050602083013567ffffffffffffffff8111156115b0576115af6110a4565b5b6115bc8582860161153f565b9150509250929050565b5f82825260208201905092915050565b7f44414f20616464726573732063616e6e6f74206265207a65726f2e00000000005f82015250565b5f61160a601b836115c6565b9150611615826115d6565b602082019050919050565b5f6020820190508181035f830152611637816115fe565b9050919050565b7f4f6e6c79207468652044414f20616464726573732063616e2063616c6c2074685f8201527f69732066756e6374696f6e2e0000000000000000000000000000000000000000602082015250565b5f611698602c836115c6565b91506116a38261163e565b604082019050919050565b5f6020820190508181035f8301526116c58161168c565b9050919050565b7f436f6e7472616374732061727261792063616e6e6f7420626520656d7074792e5f82015250565b5f6117006020836115c6565b915061170b826116cc565b602082019050919050565b5f6020820190508181035f83015261172d816116f4565b9050919050565b7f4e487b71000000000000000000000000000000000000000000000000000000005f52603260045260245ffd5b7f436f6e747261637420616464726573732063616e6e6f74206265207a65726f2e5f82015250565b5f6117956020836115c6565b91506117a082611761565b602082019050919050565b5f6020820190508181035f8301526117c281611789565b9050919050565b5f81519050919050565b5f82825260208201905092915050565b5f819050602082019050919050565b6117fb816110c7565b82525050565b5f61180c83836117f2565b60208301905092915050565b5f602082019050919050565b5f61182e826117c9565b61183881856117d3565b9350611843836117e3565b805f5b8381101561187357815161185a8882611801565b975061186583611818565b925050600181019050611846565b5085935050505092915050565b5f6040820190506118935f83018561118b565b81810360208301526118a58184611824565b90509392505050565b7f53746172742064617465206d757374206265206265666f726520656e642064615f8201527f74652e0000000000000000000000000000000000000000000000000000000000602082015250565b5f6119086023836115c6565b9150611913826118ae565b604082019050919050565b5f6020820190508181035f830152611935816118fc565b9050919050565b7f42656e656669636961727920616464726573732063616e6e6f74206265207a655f8201527f726f2e0000000000000000000000000000000000000000000000000000000000602082015250565b5f6119966023836115c6565b91506119a18261193c565b604082019050919050565b5f6020820190508181035f8301526119c38161198a565b9050919050565b7f4e487b71000000000000000000000000000000000000000000000000000000005f52601160045260245ffd5b5f611a018261112d565b9150611a0c8361112d565b9250828203905081811115611a2457611a236119ca565b5b92915050565b7f4e487b71000000000000000000000000000000000000000000000000000000005f52603160045260245ffd5b5f604082019050611a6a5f83018561118b565b611a776020830184611218565b9392505050565b7f436f6e74726163742061646472657373206973206e6f742077686974656c69735f8201527f74656420666f722074686973206170702e000000000000000000000000000000602082015250565b5f611ad86031836115c6565b9150611ae382611a7e565b604082019050919050565b5f6020820190508181035f830152611b0581611acc565b905091905056fea2646970667358221220e9b79db416ca533e07376ad91b5f0fd85411fb678de3397f90a8d8350219392364736f6c63430008160033","linkReferences":{}},"methodIdentifiers":{"addWhitelistedAppContracts(uint256,address[])":"2e2ecae3","beneficiaryApp(uint256)":"f06ea95f","daoAddress()":"2131c68c","endDate()":"c24a0f8b","fixedRewardPercentage()":"53caba18","isContractWhitelisted(uint256,address)":"a2751e09","owner()":"8da5cb5b","removeWhitelistedApp(uint256)":"0eefa35d","removeWhitelistedAppContract(uint256,address)":"fdfbe529","renounceOwnership()":"715018a6","rewardRules(uint256)":"025eb326","setBeneficiaryApp(uint256,address)":"fafaf00e","startDate()":"0b97bc86","transferOwnership(address)":"f2fde38b","updateDaoAddress(address)":"013b490c","updateProgramDates(uint256,uint256)":"6030b14a","updateRules(uint256,(uint256,uint256)[])":"dee96cf7","whitelistedAppContracts(uint256,uint256)":"1870ac05"},"id":5}